:020000040800F2
:10000000700C002065020008994E0008F1400008BD
:10001000954E00081D0500082D6000080000000036
:10002000000000000000000000000000E550000893
:100030005D05000800000000E15000089D5A00081E
:100040007F0200087F0200087F0200087F0200088C
:100050007F0200087F0200087F0200087F0200087C
:100060007F0200087F0200087F0200087F0200086C
:100070007F0200087F0200087F0200087F0200085C
:100080007F0200087F0200087F0200087F0200084C
:10009000210500082D0500087F0200087F020008E6
:1000A0007F0200087F0200087F0200087F0200082C
:1000B0007F0200087F0200087F020008D941000883
:1000C000CD4100087F0200087F0200087F0200087F
:1000D0007F0200087F0200087F0200087F020008FC
:1000E0007F0200087F0200087F0200087F020008EC
:1000F0007F020008615B00087F02000851050008CC
:100100007F0200087F0200087F0200087F020008CB
:10011000215E00082D5E00087F0200087F020008B3
:100120007F0200087F0200087F0200087F020008AB
:100130007F02000800000000000000007F020008AD
:1001400039050008450500087F0200087F02000805
:100150007F0200087F0200087F0200087F0200087B
:100160007F0200087F0200087F0200087F0200086B
:100170007F0200087F0200087F02000800000000E4
:10018000000000007F0200080000000000000000E6
:100190007F02000800000000000000007F0200084D
:1001A0000000000000000000000000007F020008C6
:1001B0007F0200087F0200087F0200087F0200081B
:1001C0007F02000800F002F800F03CF80AA090E876
:1001D000000C82448344AAF10107DA4501D100F002
:1001E00031F8AFF2090EBAE80F0013F0010F18BF93
:1001F000FB1A43F001031847B87F0000D87F0000C6
:10020000103A24BF78C878C1FAD8520724BF30C842
:1002100030C144BF04680C60704700000023002414
:1002200000250026103A28BF78C1FBD8520728BF06
:1002300030C148BF0B6070471FB507F0D0FE1FBD2F
:1002400010B510BD00F034F91146FFF7F5FF05F0C9
:10025000F5FF00F052F903B4FFF7F2FF03BC00F022
:1002600055F900000948804709480047FEE7FEE7C6
:10027000FEE7FEE7FEE7FEE7FEE7FEE7FEE7FEE756
:1002800004480549054A064B704700004D5B0008CD
:10029000C501000870060020700C002070080020C6
:1002A0007008002053EA020C00F069802DE9F04B41
:1002B0004FF00006002B1FBFB3FA83F503FA05F4D5
:1002C00024FA05F65E4012BF1643B2FA82F502FA2E
:1002D00005F4C5F120051EBF22FA05FC44EA0C0412
:1002E000203556EA044C4FEA144418BF641C4FF002
:1002F00000084FF00009904271EB030C39D300293C
:1003000019BFB1FA81F701FA07F6B0FA80F700FADF
:1003100007F6C7F120071EBF20FA07FC46EA0C06C5
:100320002037B6FBF4FCA7EB0507103F07F01F0BC7
:10033000CBF120062CFA06F60CFA0BFB44BFB346B1
:100340000026202FA4BF5E464FF0000B5BEA060C90
:1003500008BF4FF0010B19EB0B0948EB0608ABFB8C
:10036000027C06FB02CC0BFB03CCC01B71EB0C0127
:10037000C1E70B46024641464846BDE8F08B13B53F
:10038000084318BF4FF0FF300146AFF30080BDE8CF
:100390001C407047032A40F2308010F0030C00F03C
:1003A000158011F8013BBCF1020F624498BF11F8AF
:1003B00001CB00F8013B38BF11F8013BA2F1040268
:1003C00098BF00F801CB38BF00F8013B11F00303E0
:1003D00000F02580083AC0F0088051F8043B083A44
:1003E00051F804CBA0E80810F5E7121D5CBF51F8E6
:1003F000043B40F8043BAFF30080D20724BF11F860
:10040000013B11F801CB48BF11F8012B24BF00F8C4
:10041000013B00F801CB48BF00F8012B704710B535
:10042000203AC0F00B80B1E81850A0E81850B1E8AD
:100430001850A0E81850203ABFF4F5AF5FEA027CEC
:1004400024BFB1E81850A0E8185044BF18C918C01C
:10045000BDE810405FEA827C24BF51F8043B40F8BD
:10046000043B08BF7047D20728BF31F8023B48BFA2
:1004700011F8012B28BF20F8023B48BF00F8012BE0
:10048000704770477047704710B500F009F8006872
:1004900010BD10B5044600F003F8046010BD000064
:1004A000004870476000002000487047600000204E
:1004B0007546FFF7F9FFAE4605006946534620F042
:1004C0000700854618B020B5FFF7DAFEBDE82040EA
:1004D0004FF000064FF000074FF000084FF0000B00
:1004E000AC46ACE8C009ACE8C009ACE8C009ACE86F
:1004F000C00921F007018D46704710B50446AFF3DF
:1005000000802046BDE81040FFF7A5BE0149182035
:10051000ABBEFEE72600020070470000FEE70000C9
:1005200040F2A440C2F2000000F0C6BC40F2A44079
:10053000C2F2000000F0C0BC40F26830C2F200001D
:1005400000F0BABC40F26830C2F2000000F0B4BC67
:1005500040F2CC40C2F2000001F090B870470000B9
:10056000B0B540F23825C2F2000595F8630040F2BC
:10057000C0040828C2F2000407D00120A0710120A5
:1005800003F0B8FD0A2001F00BFA032001F008FA8D
:1005900095F86400082807D00120A071022003F01C
:1005A000A9FD0A2001F0FCF9032001F0F9F995F802
:1005B0006500082807D00120A071032003F09AFDF0
:1005C0000A2001F0EDF90320BDE8B04001F0E8B9E0
:1005D0002DE9F04F83B05E181C46814641EA401079
:1005E000202E28BFC1F120041FFA84FB9246CDE9DA
:1005F000002B82B240F22C501D464FF47A77C2F2A3
:100600000000AE210223029702F038F90020B0EB7F
:10061000561F22D076092F1B4FF47A7509F1010974
:10062000B9B23C464FEA4910202928BF20241AFAC3
:100630008BF1A2B2CDE9001282B240F22C50C2F28C
:100640000000AE2102231FFA8BF8029502F016F982
:100650003F1B013E18FA84FBE0D103B0BDE8F08FE8
:100660002DE9F04F83B05E181C46814641EA4010E8
:10067000202E28BFC1F120041FFA84FB9246CDE949
:10068000002B82B240F22C501D464FF47A77C2F212
:100690000000AE210223029702F0A4FA052001F027
:1006A0007FF90020B0EB561F26D076092F1B4FF4A0
:1006B0007A7500BF09F10109B9B23C464FEA491009
:1006C000202928BF20241AFA8BF1A2B2CDE900120A
:1006D00082B240F22C50C2F20000AE2102231FFA77
:1006E0008BF8029502F07EFA05203F1B18FA84FB76
:1006F00001F056F9013EDDD103B0BDE8F08F0000F6
:100700009FED168A0120B0EE480A04F0EDFC0220AD
:10071000B0EE480A04F0E8FC0320B0EE480A04F00A
:10072000E3FC0420B0EE480A04F0DEFC40F2143092
:10073000C2F2000000F1540440F2B810C2F200000E
:1007400040F2C00A4FF0AD094FF0000B00F1700508
:10075000C2F2000A40F2AD2802E000BF0000000033
:1007600040F2B02740F23826C2F20007C2F200067B
:1007700047F8309F042046F838BF38612046394694
:1007800032462B4687F814B0C7E901BBC7F80CB056
:1007900000F034FA012001F003F9DAF81C003946C0
:1007A0000130CAF81C00204632462B4600F026FADB
:1007B000012001F0F5F8DAF81C0039460130CAF8DA
:1007C0001C00204632462B4600F018FA012001F0AA
:1007D000E7F8DAF81C0009F120090130C145CAF830
:1007E0001C00C6F800B0C6F804B0B9D19FEDF68A77
:1007F0000120B0EE480A04F077FC0220B0EE480A6F
:1008000004F072FC0320B0EE480A04F06DFC0420F2
:10081000B0EE480A04F068FC4FF0AD094FF0000B51
:1008200040F2AD2840F2B02740F23826C2F200076D
:10083000C2F2000647F8309F042046F838BF3861FE
:100840002046394632462B4687F814B0C7E901BB2B
:10085000C7F80CB000F0D2F9012001F0A1F8DAF8E5
:100860001C0039460130CAF81C00204632462B468F
:1008700000F0C4F9012001F093F8DAF81C003946C1
:100880000130CAF81C00204632462B4600F0B6F96B
:10089000012001F085F8DAF81C0009F12009013087
:1008A000C145CAF81C00C6F800B0C6F804B0B9D1FA
:1008B0009FEDC58A0120B0EE480A04F015FC022025
:1008C000B0EE480A04F010FC0320B0EE480A04F031
:1008D0000BFC0420B0EE480A04F006FC4FF0AD0912
:1008E0004FF0000B40F2AD2840F2B02740F238261E
:1008F000C2F20007C2F2000647F8309F042046F813
:1009000038BF38612046394632462B4687F814B046
:10091000C7E901BBC7F80CB000F070F9012001F085
:100920003FF8DAF81C0039460130CAF81C002046AE
:1009300032462B4600F062F9012001F031F8DAF876
:100940001C0039460130CAF81C00204632462B46AE
:1009500000F054F9012001F023F8DAF81C0009F145
:1009600020090130C145CAF81C00C6F800B0C6F81D
:1009700004B0B9D19FED948A0120B0EE480A04F08A
:10098000B3FB0220B0EE480A04F0AEFB0320B0EE49
:10099000480A04F0A9FB0420B0EE480A04F0A4FBC6
:1009A0004FF0AD094FF0000B40F2AD2840F2B027F8
:1009B00040F23826C2F20007C2F2000647F8309F24
:1009C000042046F838BF38612046394632462B4667
:1009D00087F814B0C7E901BBC7F80CB000F00EF9F6
:1009E000012000F0DDFFDAF81C0039460130CAF8BA
:1009F0001C00204632462B4600F000F9012000F092
:100A0000CFFFDAF81C0039460130CAF81C00204636
:100A100032462B4600F0F2F8012000F0C1FFDAF870
:100A20001C0009F120090130C145CAF81C00C6F8B4
:100A300000B0C6F804B0B9D19FED638A0120B0EED2
:100A4000480A04F051FB0220B0EE480A04F04CFBC7
:100A50000320B0EE480A04F047FB0420B0EE480A39
:100A600004F042FB4FF0AD094FF0000B40F2AD280F
:100A700040F2B02740F23826C2F20007C2F2000668
:100A800047F8309F042046F838BF38612046394681
:100A900032462B4687F814B0C7E901BBC7F80CB043
:100AA00000F0ACF8012000F07BFFDAF81C003946BA
:100AB0000130CAF81C00204632462B4600F09EF852
:100AC000012000F06DFFDAF81C0039460130CAF849
:100AD0001C00204632462B4600F090F8012000F022
:100AE0005FFFDAF81C0009F120090130C145CAF89E
:100AF0001C00C6F800B0C6F804B0B9D19FED328A28
:100B000072B604264FF0000840F2AD290120B0EE85
:100B1000480A04F0E9FA0220B0EE480A04F0E4FAC8
:100B20000320B0EE480A04F0DFFA0420B0EE480AD1
:100B300004F0DAFA4FF0AD0B40F2B027C2F2000732
:100B400047F830BFC7E9038640F23826C2F20006F4
:100B500046F8388F2046394632462B4687F81480AF
:100B6000C7E9018800F04AF8012000F019FFDAF81F
:100B70001C0039460130CAF81C00204632462B467C
:100B800000F03CF8012000F00BFFDAF81C003946B9
:100B90000130CAF81C00204632462B4600F02EF8E1
:100BA000012000F0FDFEDAF81C000BF1200B0130F3
:100BB000C6F80080CB45C6F804804FF00406CAF89A
:100BC0001C00B9D1A2E700BF0000000090F820206F
:100BD000013A012A08D8006800F1140200201368C5
:100BE00019431160704700BF00F1240201204FF447
:100BF00080211368194311607047000010B590F808
:100C000020E0D0F800C0AEF1010EBEF1010FDCF81B
:100C100008E00FD81EF0E05F16D0CEF3016E012081
:100C200000FA0EF018608B68C3B1486843EAC0034D
:100C300016E000BF00F1240101204FF480220B6870
:100C40001A430A6010BD00BF00F1240101204FF4D7
:100C500000120B681A430A6010BD00BF0868430504
:100C6000D1E9030403430CEB0E10C0F88031C0F847
:100C70008441097D012905D100F5C2710B6843F457
:100C800080730B605168C0F88C11126800F5C07158
:100C9000C0F88821002001220B681A430A6010BDA9
:100CA000B0B590F82020013A012A2FD846F2006012
:100CB000C4F20000026842F001020260026822F4FD
:100CC0007C520260D1F814E0CC694A6A0368012CB6
:100CD00043EA022202600EF01F024FF0010303FA02
:100CE00002F2C3696FEA020C23EA0203C36113D064
:100CF0002CBBC36803EA0C03C360CB688C8844EA4E
:100D0000034300EBCE0423640B4611E0416A41F437
:100D1000802141620120B0BDC3681343C3600B68EA
:100D20008C8844EA034300EBCE04236401F10C03F6
:100D30008C681B8843EA044300EBCE046364436879
:100D40008D6943EA0204D1F810E0096A002D08BF5A
:100D500003EA0C0444604369BEF1000F43EA020455
:100D600008BF03EA0C040129446102D1C16911439F
:100D7000C161016821F0010101600020B0BD0000E7
:100D80007047000010B590F82040013C012C7BD842
:100D9000D0F800C0002900F08180DCF81040A407E2
:100DA00000F081800CEB011CDCF8B0410CF5D87E22
:100DB00014F004049460DCF8B04119BFE4085460F6
:100DC000640D1460DEF800400CF5DA7E04F00204D5
:100DD000D460DCF8B44124075ABFDEF8004004F0C8
:100DE0000F0408241461DEF800400029C4F307242E
:100DF0009461DEF800404FEA14445461DCF8B821F5
:100E00001A70026802EB0112D2F8B8214FEA1222DE
:100E10005A70026802EB0112D2F8B8214FEA12426E
:100E20009A70026802EB0112D2F8B8214FEA1262FE
:100E3000DA70026802EB0112D2F8BC211A71026862
:100E400002EB0112D2F8BC214FEA12225A71026859
:100E500002EB0112D2F8BC214FEA12429A710268E9
:100E600002EB0112D2F8BC214FEA1262DA7100687B
:100E700014BF00F1100100F10C01002020220B68CA
:100E80001A430A6010BD00BF00F1240101204FF495
:100E900080220B681A430A6010BD00BFDCF80C40CA
:100EA000A4077FF47FAF00F1240101204FF400126A
:100EB0000B681A430A6010BD2DE9F04F81B004465B
:100EC00000684669D0F804908768D0F80CB0D0F874
:100ED00010A0D0F81880F10704D1002530071DD4E8
:100EE00024E000BFF90710D00121BA07816009D4BE
:100EF000780700F1AF80380700F1B680204600F097
:100F00004FFB02E0204600F04DFB0025F80500F104
:100F10008780F80300F1B180300707D51BF010007F
:100F200004D0206845F400751021C160700708D511
:100F30001BF0080005D020680821C160204600F0A1
:100F4000FFF9B00706D52068C068800702D02046A8
:100F500000F0F8F9700607D51AF0100004D02068E8
:100F600045F4806510210161B00608D51AF008002B
:100F700005D0206808210161204600F0E5F9F0065F
:100F800006D520680069800702D0204600F0E0F90D
:100F9000B00308D519F0100005D020681021416079
:100FA000204600F0CDFAF00308D519F0080005D06E
:100FB000206808214160204600F0FEFA300440F12C
:100FC0009B805FEA497040F1948006F4807008EAE3
:100FD000102028435FEA8871014648BF41F00201B2
:100FE000B20558BF01465FEA48700D4648BF45F05C
:100FF0000405700558BF0D46300540F17A8018F0A1
:10100000700000F076801038000905286CD8DFE801
:1010100000F003595D61656945F0080564E000BFB3
:1010200020684FF48071BA0581600BD4780515D41F
:1010300038051DD4204600F0B7FAF8037FF56CAFF1
:101040001BE000BF204600F0B1FAF8037FF564AF63
:1010500013E000BF4FF4006558E700BF05F50055E9
:10106000F8037FF559AF08E04FF480554EE700BF15
:1010700005F58045F8037FF54FAF20684FF48031C8
:10108000BA0381600AD4780310D4380314D42046FC
:1010900000F08EFA30073FF541AF47E7204600F0F9
:1010A00089FA30073FF53AAF40E700BF05F5004544
:1010B00030073FF533AF39E705F5803530073FF5A9
:1010C0002DAF33E745F010050EE000BF45F02005D9
:1010D0000AE000BF45F0400506E000BF45F080058E
:1010E00002E000BF45F480752068816921F070013D
:1010F000816120680421416055B1606A40EA0501C0
:101100002046616201B0BDE8F04FFFF739BE00BF75
:1011100001B0BDE8F08F0000B0B5C8B1044690F84A
:10112000200010B9204600F071F82068016841F0F5
:101130000101016000F032FD054600BF20684168F2
:10114000C90707D100F02AFD401B0B28F6D312E097
:101150000120B0BD016821F00201016000F01EFD18
:10116000054600BF2068416889070DD500F016FDCF
:10117000401B0B28F6D3606A052140F40030606202
:10118000012084F82010B0BD217E0268012922F0E0
:10119000800208BF80320260617E0268012922F06D
:1011A000400208BF40320260A17E0268012922F09D
:1011B000200208BF20320260E17E0268012922F08D
:1011C000100218BF10320260217F0268012922F04C
:1011D000080208BF08320260617F0268012922F01C
:1011E000040208BF04320260D4E901C2D4E9033525
:1011F00061691A432A431143ACF101021143C161F1
:1012000000200121606284F82010B0BDB0B586B026
:10121000006846F60002C4F2000200219042CDE9C7
:101220000411CDE90211019134D046F20041C4F21B
:101230000001884240F0828040F25041C2F2000139
:101240000A6843F64000C4F20200531C0B6052B916
:1012500000210091016841F000710160016801F016
:101260000071009100990021009150F8101C152484
:1012700041F0010140F8101C50F8100C142500F04A
:101280000100009000984FF4C05001900020C4F27B
:10129000020038E043F64000C4F202000091016809
:1012A00041F080610160016801F080610091009966
:1012B00040F25041C2F200010A68531C0B6052B95F
:1012C00000210091016841F000710160016801F0A6
:1012D0000071009100990021009150F8101C4124E8
:1012E00041F0020140F8101C50F8100C402500F0AD
:1012F0000200009000984FF4405001900020C4F28A
:10130000020000F580600221029100210391032177
:1013100004910921059101A900F056FB28460021FE
:10132000002201F0D1FD284601F0BEFD204600213B
:10133000002201F0C9FD204601F0B6FD06B0B0BDA7
:101340007047000070470000704700000000000078
:101350002DE9F04381B040F2B02540F23827C2F2C7
:101360000005C2F2000705F1480207F14003012120
:10137000FFF708FDAA6C40F2C004C2F20004C2F3F9
:101380004303500902F01F01237302F00103023AE4
:10139000032A6070A170637300F29280DFE802F0AC
:1013A00002184E64B7F8400000BA000C00EE100AB4
:1013B000A08AB8EE400A0130A08297F85A0084ED66
:1013C0000E0A013087F85A0001B0BDE8F08300BF73
:1013D000D7E910019FED561A00BA00EE100A30EE60
:1013E000010A9FED542A9FED543AB4EE410A9FED55
:1013F000531A206440F2000030EE022A30EE033A25
:10140000F1EE10FAB4EE410AB8BFB0EE430AC2F2F0
:10141000000009BAF1EE10FAC8BFB0EE420A01634B
:10142000618A80ED070A481C97F859106082481CB1
:1014300087F8590001B0BDE8F08300BFB7F840005D
:1014400000BA000C00EE100AE08AB8EE400A013043
:10145000E08297F85C0084ED0F0A013087F85C00A9
:1014600001B0BDE8F08300BFB7F94000B7F9428092
:1014700006F055FA9FED2C0B56EC105B2A463346CE
:1014800006F0B4FA05F0DCFF40F20009C2F20009F0
:10149000C9F81800404606F042FA2A46334606F0DC
:1014A000A5FA05F0CDFF218BC9F82C00481C97F850
:1014B0005B102083481C87F85B0001B0BDE8F08317
:1014C00009290FD0012929D155FA80F18A7D57FACF
:1014D00080F001328A7597F8441080F8621001B0EC
:1014E000BDE8F083D7E9101240F25443C0B2C2F213
:1014F0000003BA6443F8202040F20042C2F2000226
:1015000000EE101A42F82010BDEEC00A40F29032F0
:1015100010EE101AC2F2000222F8101001B0BDE85D
:10152000F08300BF00BF00BF000000000000B03F1C
:10153000000034C30000B4C30000B44300003443CF
:1015400070470000B0B5044690F8200001281DD176
:10155000022084F820002068016821F00101016068
:1015600000F01CFB054600BF20684068C00713D090
:1015700000F014FB401B0B28F6D3606A40F40030E7
:101580006062052084F820000120B0BD606A40F44C
:10159000002060620120B0BD00206062B0BD00008C
:1015A000704700007047000070470000704700005F
:1015B00070470000704700007047000070B5866DEE
:1015C000044600F0EBFA94F8351002292ED10546B6
:1015D0002068216C026822F016020260426922F043
:1015E0008002426109B9A16C19B1016821F00801BA
:1015F0000160016821F0010101600068C00708D0A6
:1016000000F0CCFA401B052818D820680068C007F5
:10161000F6D1E06D3F2101FA00F0B060012084F8BE
:1016200035000020002184F8341070BD80206065F2
:101630000120002184F8341070BD00BF20206065B7
:10164000032084F83500002184F8341070BD0000B8
:1016500090F83510022909D1052180F8351000686D
:10166000016821F00101016000207047802141657F
:101670000120704790F8350070470000F0B581B048
:1016800004460020009040F25800C2F200000268B8
:10169000D4E9166048F2B51337680821C1F64E3315
:1016A00081403942A2FB03250CD0226813685B07F6
:1016B00008D5136823F004031360B160616D41F035
:1016C0000101616501218140394208D022685269D7
:1016D000120604D5B160616D41F00201616504211B
:1016E0008140394208D022681268920704D5B1605F
:1016F000616D41F00401616510218140394217D0CC
:1017000020680268120713D5B160026801685203AD
:1017100008D4C90508D4016821F008010160216CD2
:1017200021B905E0080343D4216C09B1204688475C
:10173000E16D202000FA01F23A4245D020680368AA
:10174000DB0641D5B26094F835300268052B1FD115
:1017500022F016020260426922F080024261226C8D
:101760000AB9A26C1AB1026822F0080202603F2096
:101770008840B060012084F83500216D00200029E8
:1017800084F8340058D02046884701B0F0BD00BF2F
:101790000168520310D4C90512D4016821F0100168
:1017A0000160012084F83500002084F8340007E04F
:1017B000A16C0029BAD1BBE7080301D4616C00E039
:1017C000E16B09B120468847606DA8B3606DC00722
:1017D0002ED0052084F835002068A90A026822F07E
:1017E00001020260009A01328A4200921AD802680D
:1017F000D20717D0009A01328A42009212D80268AA
:10180000D2070FD0009A01328A4200920AD80268A9
:10181000D20707D0009A01328A42009202D80268A9
:10182000D207DFD1012084F83500002084F834008D
:10183000E16C09B12046884701B0F0BD2DE9F041C7
:10184000044600F0ABF9002C4ED00546022084F887
:1018500035000020216884F83400086820F0010079
:1018600008600868C00708D000F098F9401B0528F8
:101870006CD821680868C007F6D1086848F23F02B2
:10188000CFF21002D4E90135024004F10C0E9EE8BB
:10189000C1511A432A4310433043384340EA0800F9
:1018A000626A40EA0C00042A40EA0E0320D1D4E91F
:1018B0000A5E206B4EEA0302104308604869BEF1DD
:1018C000000F20F0030040EA050040F0040C15D0A2
:1018D000B8F5005F42D0B8F1000F51D1022D52D0BF
:1018E000012D47D055B94EE00120BDE8F08100BF81
:1018F0000B60486920F0070040EA020C6FF00F000F
:101900004AF6AB2250FA81F0CAF6AA22A0FB0223C3
:101910001A0948F2A813C0F600039A5C40F2FF339C
:101920005F284FF03F00C1F814C021EA030100FA1C
:1019300002F088BF0431C4E9161288600023012236
:101940000020636584F83520BDE8F0810322202360
:101950000320636584F83520BDE8F081032DCDD8E0
:10196000012240230120DFE805F0030E030500BF3C
:10197000E7E700BFAEF1C070B0FA80F0400904E0C4
:10198000032D04D3BAD1CEF300600028B6D00122D3
:1019900040230120636584F83520BDE8F081000014
:1019A000B0B5044600F0FAF8054640F25000C2F225
:1019B00000000078611C18BF044400BF00F0EEF87E
:1019C000401BA042FAD3B0BD2DE9F04F82B000F128
:1019D0003E4241F6000502F1FF77C4F202050722FC
:1019E0004FEAB726A84208BF0622062E38BF4FEAA4
:1019F000B7224FF0010A002400274FF000080092A0
:101A000008E000BF023708F10108202F04F10404A8
:101A100000F0B4800E680AFA08F916EA090FF1D04E
:101A2000D1F804A00AF0030BABF10106012E17D880
:101A30000322866802FA07FECA6826EA0E06BA4042
:101A4000324382604268CAF3001522EA090205FAAD
:101A500008F54FEA480C6FEA0E062A4342600BE095
:101A60000322BA40D643BBF1030FBC4604D1BC46A7
:101A70004FF0030B22E000BFC2688D68324005FAC8
:101A80000CF52A43BBF1020FC26017D16FF00302BD
:101A900002EA5802024404F01C030F25D2F820E0A9
:101AA00005FA03FA0D692EEA0A0E05FA03F343EA72
:101AB0000E031362D1F804A00AF0030B02680BFABC
:101AC0000CF332401A431AF4403F4FF0010A02600F
:101AD00098D0002243F644030192C4F202031A682C
:101AE00043F6004E42F480421A601A68C4F2010EB6
:101AF00002F480420192019A28F003024FF6084C4A
:101B00007244CFF6FF7C52F80C3004F00C060F251F
:101B1000B540AB43009D05FA06F6334342F80C305E
:101B2000DEF808204B6842EA090643F60C4CDD0259
:101B300058BF22EA0906CEF80860C4F2010CDCF8AE
:101B400000209D0242EA090658BF22EA0906CCF8A5
:101B50000060DEF804209D0342EA090658BF22EA2D
:101B60000906CEF80460DEF80020DB0342EA09062D
:101B700058BF22EA0906CEF8006043E702B0BDE88C
:101B8000F08F00000069084018BF01207047000076
:101B9000002A08BF090481617047000040F26860B4
:101BA000C2F20000006870477047000070470000F4
:101BB000F0B581B0044600684769426894F83E1069
:101BC00002F480763E420FBF00256FF480724261BE
:101BD0000125BA0505D5002E1EBF02356FF400722F
:101BE00042617A0516D5AEB1628D94F83D30D4F8D5
:101BF00030C0202908BF002A24D06FF48062402919
:101C000005F10405426101D0102903D1016841F4B6
:101C100000710160380507D536B1206808356FF4CA
:101C20000061416101E000BF55B1206C40EA05014F
:101C30002046216401B0BDE8F04002F061BB00BF66
:101C400001B0F0BD43F00801292909D0282B08BFB5
:101C5000BCF1210F04D06FF4806141610435D9E7F4
:101C600094F83D10E26A202A01D0082A1ED12129C9
:101C70001ED028293CD10021CFF6FF71E1624168D6
:101C800021F4E06141606FF480614161016821F4F9
:101C90008061016000202021206384F83D1084F8D9
:101CA0003E00204600F0E0FDB4E700BF21291FD12F
:101CB0000021CFF6FF71E16221212163202184F808
:101CC0003D10002184F83E10426822F4E062426038
:101CD0006FF480624261026822F4806202604269AD
:101CE000120648BF0161204601F072F892E700BF7A
:101CF0006FF4806141618DE72DE9F04182B0D0F849
:101D000000800446C4465CF8043FC06A94F83E5024
:101D100094F83D20402D01D0102D21D1D8F8186025
:101D2000D8F81410CF0765D1B0F12A4F00F0DA834C
:101D3000B0F52A0F00F0D68313F400704FF00107BE
:101D400087EA502E18BF11F0080057D0606B616C05
:101D50000028C9B2C8F8101040F0078107E100BFA1
:101D6000206C00280CBFD8F818500025D8F81410A3
:101D700013F4007618BF11F0020040F0A980002E85
:101D800018BF11F0100040F00F8142F00800292820
:101D900040F09A81580540F1C18101F0840080280B
:101DA00040F0BC8194F83D00618D002900F09A83D9
:101DB000616A292811F8012BC8F810206162618D31
:101DC000A1F101016185618D08BF002940F08A837E
:101DD000DCF80000282120F48060CCF800002120ED
:101DE0002063204684F83D1002B0BDE8F04100F0C9
:101DF000EFBF00BF980533D44FF0010EBEF1000FC6
:101E000034D111F0020031D094F83E00E26A216B27
:101E100094F83D30222B40F0BB804028236D08BF52
:101E2000002B00F0B580206D002840F099812069DA
:101E3000B0F5404F40F0948100200190D8F8140094
:101E40000190D8F8180001900198D8F8000040F4EB
:101E50008070C8F80000206D013000F0DABB00BFD0
:101E6000E06AB0F52A0F57D101205AE0DCF80000F3
:101E7000760700F4006000F1DD80002840F0328336
:101E8000580540F1AB8101F04400402840F0A681A4
:101E900094F83D00222840F02583E26A608D0428F2
:101EA000C0F09282D8F81000616A0870606A013050
:101EB0006062608D01386085608D032840F0128378
:101EC0002068416821F48061416002B0BDE8F08182
:101ED000206C002818BFD8F8185094F83D0000F086
:101EE0002800282840F0E280DCF80000002320F4DD
:101EF0008060CCF80000012020EA950128064FF010
:101F0000180058BF0C20225A204684F83C3002B0FA
:101F1000BDE8F041FFF74ABEE06AB0F12A4F01D1B7
:101F20000820E06294F83E0040280DD1206D616CDD
:101F3000002801F0FE0018BF40F00100C8F81000B2
:101F400002B0BDE8F08100BF2069B0F5804F40F0DD
:101F5000F58094F83D00616C212801F0FE0118BF66
:101F60000131C8F81010606B08B1C06B38B9A06BB4
:101F7000002800F0B782C06B002800F0B382DCF8C4
:101F8000000040F40060CCF8000002B0BDE8F08131
:101F900000200190D8F814000190D8F818000190A2
:101FA000019802B0BDE8F08194F83D50D8F80400E3
:101FB00020F4E060C8F8040000200190D8F8140074
:101FC0000190D8F8000040F00100C8F80000019826
:101FD000D8F8000020F48060C8F80000D8F80400A9
:101FE000000540F15D8145F008002A2840F0388165
:101FF000A06B016849686185618D19B1216C41F060
:1020000004012164DCF8001021F40061CCF8001018
:10201000FFF730FB012800F04381A06B44F2E5118B
:10202000C0F600010165FFF713FB002800F03881BE
:10203000A06B33E1002840F05582580540F1F08054
:1020400001F08400802840F0EB8094F83D2094F863
:102050003E00E16A212A40F09B81238D002B40F055
:10206000978111F5803F18BF082940F05F82D8F8AA
:102070000400202120F4E060C8F80400D8F8000033
:1020800040F40070C8F800000020206384F83D1080
:1020900094F83E1084F83E004029204640F05882D3
:1020A00002B0BDE8F04100F0E7BB00BF00200190A6
:1020B000D8F814100191D8F818100191019984F8FA
:1020C0003C0002B0BDE8F08158056BD501F044003A
:1020D000402867D194F83D00618D002900F002820C
:1020E000D8F81010626A2A281170616A01F10101A2
:1020F0006162618DA1F101016185618D08BF0029D7
:1021000040F0F0812068416821F480614160222024
:1021100028212063204684F83D1021E1002E18BFBD
:1021200011F0040000F0DE81608D002800F0DA81FB
:10213000606A10F8011BC8F8101069E0206D0028D3
:1021400042D0206D012840F0CD81606C062101EA6B
:10215000D010F130C8F8100002B0BDE8F08100BF27
:10216000608D70B1608D012840F00081202A18BF79
:10217000082A40F0C581D8F8000020F48060C8F833
:10218000000000200190D8F814000190D8F8180041
:1021900001900198D8F8000040F40070C8F80000E1
:1021A00036E200BF002E18BF11F0040000F09A8143
:1021B000608D002800F09681D8F81000616A0870E0
:1021C000606A013024E000BF606C062101EAD01093
:1021D000F030C8F8100002B0BDE8F08101F0040052
:1021E000012181EA900050EA0E0040F07B81E26A12
:1021F000608D042840F05881D8F8040020F48060F5
:10220000C8F80400D8F81000616A0870606A0130EC
:102210006062608D0138608502B0BDE8F08100BF6A
:1022200001F00400012181EA900050EA0E0040F024
:102230005981212A40F04E81E06A94F83D1021290D
:1022400040F05081618D00297FF472AF10F5803F1E
:1022500018BF08283FF40BAF20283FF408AF68E10F
:10226000606B016849686185618D19B1216C41F02D
:1022700004012164DCF8001021F40061CCF80010A6
:10228000FFF7F8F901280BD0606B44F2E511C0F6B6
:1022900000010165FFF7DCF910B1606B016D884743
:1022A000608D60B120684169490731D441694906B0
:1022B0003BD4608D18B1206C40F004002064206C89
:1022C00030B1204602B0BDE8F04102F019B800BFBD
:1022D0002A2D07D100202063282084F83D002046C5
:1022E00000F074FD94F83D0028282BD10020CFF693
:1022F000FF70E06200212020216384F83D00204629
:1023000084F83E1002B0BDE8F04100F0ADBA00BF65
:102310000069616A0870616A206801316162618DDB
:102320000139618541694906C3D50069616A087050
:10233000606A01306062608D01386085608D0028C0
:10234000B9D1BCE7222D206B18BF222840F0CA80EB
:1023500000212020216384F83D00204684F83E10AF
:1023600002B0BDE8F04100F031BD00BF608D022831
:1023700020D1102A00F22081012014219040C0F2C7
:102380000101084200F018814FF480601CE100BF99
:10239000212A04D0222A08BF402840F0A380608D63
:1023A000002800F0A38094F83E00402800F09480BC
:1023B000BEE600BFD8F8000040F48060C8F8000016
:1023C000D8F8040007E100BFE16A012800F28E801E
:1023D000022900F08B800020019040F25800C2F2E8
:1023E000000000684BF28951C008C1F2F841A0FB1F
:1023F0000101080A00EB800001900198013801906A
:102400000198002800F00E81D8F80000800520D542
:102410000198013801900198002800F00381D8F854
:102420000000800515D50198013801900198002819
:1024300000F0F880D8F8000080050AD5019801382E
:1024400001900198002800F0ED80D8F80000800588
:10245000D3D4D8F8000020F48060C8F80000D8F881
:10246000040020F4E060C8F80400D8F81000616AA5
:102470000870606A002101306062608D01386085FB
:10248000202084F83D0094F83E0084F83E10402857
:1024900000F01681082A4FF0000100F02081202A68
:1024A00018BF12211BE100BF608D032856D1DCF854
:1024B0000000022A20F48060CCF800003FF4A2AEB5
:1024C000042A3FF49FAED8F8000020F48060C8F8DA
:1024D000000097E6402D05D1204602B0BDE8F0414E
:1024E00001F0CEBF02B0BDE8F08100BFDCF8000013
:1024F00020F48060CCF8000002B0BDE8F08100BF9D
:1025000012F5803F42D1D8F8000020F48060C8F86E
:102510000000D8F8040000057FF533AED8F80000BD
:1025200020F48060C8F8000069E000BF20293FF473
:102530009EADDCF80000202120F4E060CCF8000023
:1025400011202063002084F83E00204684F83D10CE
:1025500002B0BDE8F04100F08BB900BF608D0228E9
:102560007FF450AE501E0F2800F28280DFE800F0AA
:10257000087A807A80808080808080808080800857
:10258000D8F8000020F4806076E000BF012A02D075
:1025900012293FF4F0AD102AC0D801201421904038
:1025A000C0F201010842B9D0D8F8000040F48060C0
:1025B000C8F8000023E000BFD8F8000020F48060D5
:1025C000C8F800004FF40060D8F800100843C8F8BD
:1025D0000000DCF80000000511D5501E1F281DD892
:1025E000012101FA00F048F28101C8F2000108421D
:1025F00014D0DCF8000040F48050CCF8000000203B
:102600000190D8F814000190D8F8180001900198B2
:102610000020206502B0BDE8F08100BF12F5803FC8
:10262000E7D0ECE7206C40F020002064D8F80400EC
:1026300020F4E060C8F80400D8F81000616A08705F
:10264000606A002101306062608D01386085202061
:1026500084F83D00204684F83E1002B0BDE8F04109
:1026600000F044B8D8F8000040F4806004E000BFF7
:10267000D8F8000040F40070C8F80000D8F8100046
:10268000616A0870606A2168431C6362638D013B64
:10269000638509694170606A216801306062608DFC
:1026A00001386085486820F440704860202084F834
:1026B0003D0094F83E000021402884F83E1007D1E8
:1026C0002046216302B0BDE8F04100F0D3B800BF5E
:1026D000082A4FF0000102D0202A18BF12212046FC
:1026E000216302B0BDE8F04100F0C0B870470000BF
:1026F00070B5B8B3044690F83D0028B9002084F8BE
:102700003C00204600F01CFB242084F83D0020689B
:10271000016821F001010160016841F4004101609C
:10272000016821F40041016000F0F8FC48F28041AA
:10273000C0F21E0140F60013D4F804E088424FF0C6
:102740000001C0F23D0348F2A16C4FF0000238BF17
:1027500001219842C0F2010C38BF0122E64538BF82
:102760000A460AB1012070BD4DF68361C4F21B31E7
:10277000A0FB01122168950C4B684FF4967623F06C
:102780003F0343EA9243754344F6D3564B60C1F28C
:1027900062060B6AA5FB0656B50923F03F03E64522
:1027A00038BF950C6A1C1A430A62CA6948F2A066CF
:1027B0004CF6FF73C0F20106B64522EA03020BD8BD
:1027C00001384FEA4E03B0FBF3F001306FF31F30D6
:1027D000042898BF04201EE0A368013863B11923C0
:1027E0000EFB03F3B0FBF3F001306FF31F3078B151
:1027F00000F5804008E000BF0EEB4E03B0FBF3F0A5
:1028000001306FF31F3028B100F5004003E000BF36
:10281000012000E001201043C8610868D4E90723C3
:1028200020F0C000104318430860886848F2FF3267
:1028300004F10C0690434CCE18431043A569886000
:10284000C86820F0FF0030432843C860086840F0A3
:102850000100086000202021206484F83D102063DE
:1028600084F83E0070BD0000704700007047000013
:102870007047000070470000704700002DE9F043EA
:1028800083B0994616460F460446FFF787F994F839
:102890003D10202920D10546206800BF81698907A5
:1028A00016D5FFF77BF9411B20681A29F6D38169F9
:1028B0008907F3D500202021206384F83D1084F897
:1028C0003E00216C41F02001216484F83C0003E0CB
:1028D00094F83C10012903D1022003B0BDE8F08335
:1028E000012284F83C200368DDE90B180A9ADB0713
:1028F00003D1036843F001030360036823F400631A
:102900000360222084F83D00402084F83E0000202F
:10291000206462626185608D394620850020CFF693
:10292000FF70E062204632464B46CDF800800195AC
:1029300001F006FE20B1012003B0BDE8F08300BF26
:10294000208DA8B102282BD0012835D121680A6832
:1029500022F480620A60002202924A6902928A6925
:102960000292029A0A6842F400720A602CE000BFE8
:1029700000200290206841690291816902910299C8
:10298000016841F400710160202084F83D000020BE
:1029900084F83E0084F83C0003B0BDE8F08300BF3B
:1029A00021680A6822F480620A600A6842F40062C0
:1029B0000A600022029202E00021029121684A6925
:1029C000029289690291029908F101061EE000BF96
:1029D000016841F4007101600069616A0870606A11
:1029E0002268411C6162218D01392185618D013987
:1029F000618511694170606A218D01306062481EF5
:102A00002085618D013961850104BDD080B2032824
:102A100010D8022832D0012854D1204641462A46F7
:102A200001F0DCFF00287FF486AF2068616A00694E
:102A300021E000BF204641462A4601F0CFFF002892
:102A40007FF479AF2068616A00690870606A226863
:102A5000411C208D616201382085638D013B6385B7
:102A600053695B07D0D580B2032803D1106820F4E6
:102A70008060106010690870BDE700BF2068416980
:102A80004907A5D4002E7BD0B8F1000F0FD100BFAD
:102A9000FFF784F820684169490740F19180416956
:102AA0004907F5D594E700BF4169490790D4FFF77E
:102AB00075F8411B20684145F6D941694907F3D4AF
:102AC0007EE000BF20684169490728D4D6B1B8F13B
:102AD000000F0CD1FFF762F82068416949076FD5F4
:102AE00041694907F6D51AE04169490717D4FFF74C
:102AF00055F8411B20684145F6D941694907F3D48F
:102B00005EE000BF4169490709D4416949075CBFDC
:102B100041695FEA417102D441694907F2D5016810
:102B200021F4806101600069616A0870606A218D2A
:102B300001300139606221852068618D013961852C
:102B4000416949073FF544AF56B3B8F1000F0DD1C5
:102B5000FFF724F820684169490731D541694907E1
:102B6000F6D535E7416949073FF532AFFFF716F86B
:102B7000411B20684145F5D941694907F2D41FE05E
:102B8000416949073FF524AF416949075CBF416985
:102B90005FEA41713FF51CAF41694907F0D517E77E
:102BA000416949073FF514AF416949075CBF416975
:102BB0005FEA41713FF50CAF41694907F0D507E77E
:102BC00000202021206384F83D1084F83E00216C11
:102BD00041F02001216484F83C00012003B0BDE8ED
:102BE000F08300002DE9F04383B0994616460F4666
:102BF0000446FEF7D3FF94F83D10202920D1054666
:102C0000206800BF8169890716D5FEF7C7FF411B01
:102C100020681A29F6D381698907F3D5002020217D
:102C2000206384F83D1084F83E00216C41F02001BF
:102C3000216484F83C0003E094F83C10012903D19E
:102C4000022003B0BDE8F083012284F83C20036831
:102C5000DDE90B180A9ADB0703D1036843F001038F
:102C60000360036823F400630360212084F83D00BF
:102C7000402084F83E000020206462626185608DFF
:102C8000394620850020CFF6FF70E06220463246AC
:102C90004B46CDF80080019501F02CFD20B10120BC
:102CA00003B0BDE8F08300BF208D98B920464146AF
:102CB0002A4601F0AFFD98B3206C0428EFD12068BC
:102CC000016841F400710160012003B0BDE8F083A8
:102CD0000004EBD0204641462A4601F0CBFE0028F6
:102CE000EAD1616A2268084610F8013B1361238D1E
:102CF0006062581E2085678D0604A7F1010767856D
:102D0000576918BF17F00407E2D048781061881C93
:102D10006062981E2085618D01396185D8E700BF0A
:102D20002068016841F400710160202084F83D00B2
:102D3000002084F83E0084F83C0003B0BDE8F08336
:102D4000B0B586B0016845F20040C4F2000081428F
:102D500002D006B0B0BD00BF002443F63005019498
:102D6000C4F20205296800F5D83041F0020129605B
:102D7000296801F0020101910199C02101911221FC
:102D8000CDE90214032104910421059101A9FEF764
:102D90001BFE00942869002140F400102861286976
:102DA000002200F40010009000981F2000F08CF822
:102DB0001F2000F079F820200021002200F084F884
:102DC000202000F071F806B0B0BD00007047000090
:102DD0007047000040F2500040F26861C2F200000B
:102DE000C2F2000100780A681044086070470000D1
:102DF00080B543F60040C4F20200016841F400715E
:102E00000160016841F480610160016841F48071F2
:102E10000160032000F084F80F2000F005F800F0B6
:102E200027F8002080BD000070B540F25006C2F2C5
:102E3000000640F258013278C2F200014FF47A7372
:102E40000968B3FBF2F20446B1FBF2F1084600F068
:102E500051FC0F2C4FF0010508D838B94FF0FF3066
:102E600021460022002500F02FF87460284670BD2E
:102E700082B0002043F640010190C4F202014A688A
:102E800042F480424A604A6802F480420192019A08
:102E90000090086840F080500860086800F080509A
:102EA0000090009802B07047002848BF704700F0BB
:102EB0001F01012202FA01F14EF200124009CEF286
:102EC000000242F82010704710B54EF60C5CCEF2AE
:102ED000000CDCF80030C3F3022E8EF00704042C43
:102EE00028BF0424BEF103034FF0FF3E0EFA04F4A2
:102EF00038BF0023A14399400EFA03F39A4300F030
:102F00000F03043B1143634409010C3300F1604299
:102F1000B0F1FF3FC8BF02F56443197010BD000057
:102F20004EF60C51CEF200010A684FF6FF031A402C
:102F300060F30A2242F0806040F0FD700860704744
:102F400070B582B00020019043F64000C4F2020048
:102F50000168402641F0805101600068C4F20E26ED
:102F600000F080500190019847F204050120C4F25E
:102F700000053060FEF712FE044600BF2868C0035B
:102F800006D4FEF70BFE001BB0F57A7FF6D90EE0F3
:102F900001207060FEF702FE044600BF286880032F
:102FA00008D4FEF7FBFD001BB0F57A7FF6D90320AD
:102FB00002B070BD002002B070BD00002DE9F041EC
:102FC000002800F08B8043F60808C4F2020804468B
:102FD000D8F8F8030D4600F00F00884207D288F8B1
:102FE000F853D8F8F80300F00F00A84276D1206813
:102FF000810717D5410705D5D8F8001041F4E051F5
:10300000C8F80010010705D5D8F8001041F4604158
:10301000C8F80010D8F80010A26821F0F0011143A0
:10302000C8F80010C0073FD1D8F8F80300F00F002F
:10303000A84207D988F8F853D8F8F80300F00F0031
:10304000A8424BD12068410707D5D8F80010E268A4
:1030500021F4E0511143C8F80010000708D5D8F852
:103060000000216920F4604040EAC100C8F8000077
:1030700000F07CF8D8F8001048F29012C1F3031168
:10308000C0F60002515C40F2580220FA01F140F211
:103090005400C2F200000068C2F200021160FFF7A3
:1030A000C3FE0020BDE8F0816068811E022907D2BE
:1030B00058F8081C89015CBF0120BDE8F08111E0CF
:1030C000012807D158F8081C89035CBF0120BDE81E
:1030D000F08107E058F8081C890703D40120BDE8F7
:1030E000F08100BFD8F8001021F003010843C8F8B0
:1030F0000000FEF753FD064641F28837D8F800007D
:10310000616800F00C00B0EB810F8DD0FEF746FD3A
:10311000801BB842F2D90320BDE8F08140F258008C
:1031200043F60801C2F20000C4F202010068096817
:1031300048F2A012C1F38221C0F60002515CC840DF
:103140007047000040F2580043F60801C2F2000048
:10315000C4F202010068096848F2A012C1F34231CA
:10316000C0F60002515CC8407047000010B543F63D
:103170000404C4F202046068C0F3810142F200401A
:10318000C0F2F400DFE801F04402081841F2002028
:10319000C0F27A0010BD00BF216801F03F02216833
:1031A00023684902C3F3881116D4A1FB0001002350
:1031B000FDF778F817E000BF216801F03F022168B1
:1031C00023684902C3F3881116D4A1FB0001002330
:1031D000FDF768F817E000BF41F20020C0F27A0066
:1031E0004843B0FBF2F021680222C1F3014102EB37
:1031F0004101B0FBF1F010BD41F20020C0F27A00B5
:103200004843B0FBF2F02168C1F30271B0FBF1F06A
:1032100010BD00002DE9F04182B0002800F096803A
:103220000446007843F60006C007C4F202062BD01D
:10323000B06800F00C00042820D0B06800F00C004A
:10324000082802D17068400218D4B06800F00C0061
:103250000C2802D17068400210D46068B0F5803F3D
:1032600007D0B0F5A02F40F03B81306840F48020BB
:103270003060306840F4803030603BE1306880037B
:1032800002D56068002861D02078800722D5B06818
:1032900010F00C0F11D0B06800F00C00082802D11B
:1032A0007068400209D5B06800F00C000C2840F0AE
:1032B0009F807068400200F19B803068800702D5D3
:1032C000E068012842D13068216920F0F80040EA26
:1032D000C1003060207800073CD42078400751D4EA
:1032E000A5698DB3B06800F00C00082840F0A880F4
:1032F000012D2BD07068E16900F480028A4225D14B
:10330000216A00F03F028A4220D147F6C071626A0A
:103310000140B1EB821F19D1A26A0023CFF6FF73DF
:1033200003EBC23200F440316FF30F0291420DD132
:10333000E16A00F07062B2EB016F07D1216B00F01F
:10334000E040B0EB017F01D1002035E1012002B067
:10335000BDE8F0816069002840F20000C4F2472017
:103360005ED00121C0F8801EFEF718FC054600BFA4
:10337000706F8007B1D4FEF711FC401B0228F7D90B
:10338000C5E000BF306C10F080580AD100200190D9
:10339000306C40F080503064306C00F08050019010
:1033A000019847F20007C4F200073868C00511D43D
:1033B000386840F480703860FEF7F0FB054600BFC7
:1033C0003868C00506D4FEF7E9FB401B0228F7D990
:1033D0009DE000BFA068012805D0052852D1306FBC
:1033E00040F004003067306F40F00100306753E078
:1033F000E068002860D00020C4F24720012101606D
:10340000FEF7CCFB054600BF306880073FF55BAF99
:10341000FEF7C4FB401B02284FF00300F4D9CBE0B9
:103420000021C0F8801EFEF7B9FB0546706F8007CB
:103430007FF553AFFEF7B2FB401B0228F6D966E0DA
:103440000027C4F2472700203866FEF7A7FB022DAD
:1034500005460BD1306880015ED5FEF79FFB401B0F
:1034600002284FF00300F5D9A6E000BF30688001C4
:103470007FF56AAFFEF792FB401B02284FF0030076
:10348000F4D999E0316F002821F001013167316FE3
:1034900021F00401316765D0FEF780FB054641F25B
:1034A000883700BF306F80076ED4FEF777FB401B74
:1034B000B842F7D92BE000BF0020C4F2472000211A
:1034C0000160FEF76BFB0546306880077FF502AFB1
:1034D000FEF764FB401B02284FF00300F4D96BE0B9
:1034E0003168002821F480313160316821F4802175
:1034F000316053D0FEF752FB054600BF30688003B1
:103500003FF5C2AEFEF74AFB401B6428F6D9032004
:1035100002B0BDE8F08100BF04F11C052FCD246B83
:1035200008430021CFF6FF7140EA821001EBC3315E
:103530006FF30F0140EA0560084340EA04707060D1
:1035400001203866FEF72AFB044600BF3068800180
:103550003FF5FAAEFEF722FB001B02284FF00300F6
:10356000F4D929E0FEF71AFB054641F2883700BF7F
:10357000306F800708D5FEF711FB401BB8424FF0B3
:103580000300F5D918E000BFB8F1000F7FF4A8AE32
:10359000306C20F080503064A2E600BFFEF7FEFAE7
:1035A0000546306880037FF56FAEFEF7F7FA401BE3
:1035B00064284FF00300F4D902B0BDE8F0810000A8
:1035C00070B558B1D0F824C00446BCF1000F07D044
:1035D0000021216104F1140108E000BF012070BD49
:1035E0006168B1F5827F03D004F11C0100220A60FA
:1035F0000025A56294F851104FF0000E41B9204605
:1036000084F8505000F040F8D4E909C101F4005E9C
:10361000022284F85120D4E90023D4E9020116687B
:1036200003F4827326F04006166000F40440184448
:10363000236901F40061084403F00201636908444E
:1036400003F00101A369E669084403F4007108442A
:1036500006F03801266A084406F08001084340EA73
:103660000E001060042000EA13400CF01001084422
:103670005060D06920F40060D0610120656584F855
:103680005100284670BD000080B586B0016843F245
:103690000000C4F20100814202D006B080BD00BF2C
:1036A000002143F630020191C4F20202536900F591
:1036B000504043F480535361536903F480530193A2
:1036C000019B0191136843F001031360126802F03B
:1036D00001020192019AE02201920222CDE9022127
:1036E000032104910521059101A9FEF76DF906B0AA
:1036F00080BD0000411E0020B0EB116F1CBF0120F7
:1037000070474EF21002CEF2000251604EF6235185
:10371000CEF20001F0230B7007219060116070471A
:103720007047000070470000002804BF0120704768
:1037300010B5044690F83D0028B9002084F83C00FC
:10374000204600F01FF8022084F83D002068211D6B
:1037500002F00CFA012084F8460084F83E0084F858
:103760003F0084F8400084F8410084F8420084F867
:10377000430084F8440084F8450084F83D000020AC
:1037800010BD000080B582B0006842F20001C4F2B2
:10379000000188421CBF02B080BD0020019043F6AA
:1037A0004000C4F202000168002241F4807101600F
:1037B0000068002100F48070019001982D20FFF72F
:1037C00083FB2D2002B0BDE88040FFF76DBB0000F9
:1037D00070470000B0B504460068C168026902EA9B
:1037E0000105A90720D4680734D428074AD4E8067D
:1037F00060D4E80777D1280600F17F80680606D5F7
:1038000020686FF040010161204600F087F8A806AB
:1038100058BFB0BD21686FF0200220460A61BDE8A4
:10382000B040FFF77FBF00BF6FF0020101610121CF
:1038300021778069800703D02046FFF7C9FF05E0A4
:10384000204600F065F8204600F064F8002020775C
:103850006807CAD520686FF0040101610221217751
:10386000806910F4407F03D02046FFF7B1FF05E0E8
:10387000204600F04DF8204600F04CF8002020775C
:103880002807B4D520686FF0080101610421217771
:10389000C069800704D02046FFF79AFF06E000BF0A
:1038A000204600F035F8204600F034F8002020775C
:1038B000E8069ED520686FF010010161082121778C
:1038C000C06910F4407F03D02046FFF781FF05E078
:1038D000204600F01DF8204600F01CF8002020775C
:1038E000E8073FF488AF20686FF0010101612046CE
:1038F00000F012F828067FF581AF20686FF0800194
:1039000001612046FFF70CFF68067FF580AF77E77F
:1039100070470000704700007047000070470000CB
:103920007047000070470000B0B582B005680446DB
:103930002968EA68686901F02F03202B02F0200350
:1039400006D12BB1204602B0BDE8B04002F07ABAF1
:103950005FEA017C1EBF00F0010E02F4907010EBD4
:103960000E002FD1236B02EA0100C10618D5012BEE
:1039700016D1002001902868019068680190019894
:103980006869400628D4A08DE18DE28D002A1CBF15
:10399000411A5FEA014040F0D78102B0B0BD00BFDC
:1039A000010600F1D3804006F7D5E868202120F019
:1039B0004000E860204684F8411002B0BDE8B04005
:1039C00000F094BBC80718BF12F4807040F0D2809A
:1039D000480700F1D580DAE0E06B01684A6893B2ED
:1039E000002BDAD0A18D8B42D7D2E285C069B0F529
:1039F000807F00F0A08055E8030F216820F48070DC
:103A000041E80302F2B1206850E8030F216820F476
:103A1000807041E80302AAB1206850E8030F2168D2
:103A200020F4807041E8030262B1206850E8030F7F
:103A3000216820F4807041E803021AB1206850E840
:103A4000030FDAE7206850E8050F216820F0010035
:103A500041E80502BAB3206850E8050F216820F05C
:103A6000010041E8050272B3206850E8050F2168A3
:103A700020F0010041E805022AB3206850E8050F54
:103A8000216820F0010041E80502002ADAD11AE09D
:103A9000206850E8050F216820F0400041E8050249
:103AA000DAB1206850E8050F216820F0400041E8B5
:103AB000050292B1206850E8050F216820F040000F
:103AC00041E805024AB1206850E8050F216820F05E
:103AD000400041E80502002ADAD1202084F84200A3
:103AE00000202063206850E8030F216820F01000B8
:103AF00041E80302DAB1206850E8030F216820F0A2
:103B0000100041E8030292B1206850E8030F2168D9
:103B100020F0100041E803024AB1206850E8030F8A
:103B2000216820F0100041E80302002ADAD1E06B9E
:103B3000FDF744FDA18D02206063E08D081A81B27B
:103B4000204602B0BDE8B040FFF7EABE94F841005D
:103B500021287FF422AFA068B0F5805F03D12069EF
:103B6000002800F08981206A411C21620078686089
:103B700089E100BF606C40F001006064480706D531
:103B8000BEF1000F03D0606C40F002006064880753
:103B900006D5BEF1000F03D0606C40F004006064F5
:103BA000BCF1000F06D55EEA030003D0606C40F064
:103BB00008006064606C00283FF4EFAE02EA010088
:103BC000800603D5204602F03DF925686869616CDE
:103BD00000F0400001F00801401800F0AD8055E809
:103BE000030F00BF216820F4907041E80302D2B3B4
:103BF000206850E8030F216820F4907041E8030228
:103C00008AB3206850E8030F216820F4907041E8DF
:103C1000030242B3206850E8030F216820F490703B
:103C200041E80302FAB1206850E8030FDAE700BF69
:103C3000206850E8050F216820F0010041E80502E6
:103C4000DAB1206850E8050F216820F0010041E852
:103C5000050292B1206850E8050F216820F00100AC
:103C600041E805024AB1206850E8050F216820F0BC
:103C7000010041E80502002ADAD1206B012824D195
:103C8000206850E8030F216820F0100041E803028B
:103C9000DAB1206850E8030F216820F0100041E8F5
:103CA000030292B1206850E8030F216820F0100051
:103CB00041E803024AB1206850E8030F216820F070
:103CC000100041E80302002ADAD1202084F84200E3
:103CD0000020206320684169490640F1C78050E810
:103CE000050F216820F0400041E80502002A00F09D
:103CF000AB80206850E8050F216820F0400041E8C3
:103D00000502002A00F0A080206850E8050F216815
:103D100020F0400041E80502002A00F0958020686C
:103D200050E8050F216820F0400041E80502002A14
:103D300000F08A802068D2E72046FFF7F3FD0020DC
:103D4000606402B0B0BD00BF55E8030F226820F4E4
:103D5000907042E80303D3B3206850E8030F226851
:103D600020F4907042E803038BB3206850E8030FFF
:103D7000226820F4907042E8030343B3206850E8BF
:103D8000030F226820F4907042E80303FBB120681F
:103D900050E8030FDAE700BF206850E8050F2268FB
:103DA00020F0010042E80503DBB1206850E8050F70
:103DB000226820F0010042E8050393B1206850E832
:103DC000050F226820F0010042E805034BB120688E
:103DD00050E8050F226820F0010042E80503002B9F
:103DE000DAD1202084F8420000202063206850E8C7
:103DF000030F226820F0100042E80303DBB12068C3
:103E000050E8030F226820F0100042E8030393B14A
:103E1000206850E8030F226820F0100042E80303F6
:103E20004BB1206850E8030F226820F0100042E8F0
:103E30000303002BDAD1022289B22046626302B06A
:103E4000BDE8B040FFF76CBDE06B78B145F6396175
:103E5000C0F600010165FDF7FBFB00283FF49DADB6
:103E6000E06B016D02B0BDE8B0400847204602B0EB
:103E7000BDE8B040FFF756BD206A30F8021B6FF373
:103E80005F2169602062E08C01380104E0847FF4E6
:103E900084ADE86820F08000E860E86840F0400009
:103EA000E86002B0B0BD0000002804BF01207047E8
:103EB00010B5044690F8410028B9002084F840006D
:103EC000204600F021F8242084F841002068C168D1
:103ED00021F40051C160204602F036F820680169E3
:103EE00021F490410161416921F02A014161C168D9
:103EF00041F40051C16000202021606484F8411029
:103F000084F84210606310BD2DE9F04786B0044686
:103F1000006845F20001C4F2000100268842CDE9A4
:103F20000466CDE90266019630D044F60041C4F241
:103F30000001884240F09680002043F63001009056
:103F4000C4F202010A6942F400220A610A6902F419
:103F500000220092009A00900A6842F001020A6072
:103F60000968022201F0010100910099CDE90220C7
:103F7000082003210590002001910491C4F2020061
:103F800001A9FDF721FD342464E000BF43F63000B1
:103F90000096C4F202000169002741F4801101611A
:103FA0000169C4F2020701F48011009100990096A2
:103FB000016801AD41F00401016001684FF00208A1
:103FC00001F0040100910099009601684FF0030987
:103FD00041F00801016000684FF0080A00F0080095
:103FE000009000984FF48050019007F5006029463A
:103FF000CDE90286CDF81090CDF814A0FDF7E4FCD1
:104000000420CDE9010803A880E8400607F54060D8
:104010002946FDF7D9FC40F2CC4546F2B800C2F281
:104020000005C4F202004FF0006140224FF48063AB
:1040300085E847002846C5E90436C5E90666C5E9AE
:104040000866FDF7FBFB002818BFFCF759FBA563CA
:10405000AC633524204600210022FEF735FF2046C0
:10406000FEF722FF06B0BDE8F087000090F842306E
:10407000202B1CBF0220704700294FF0010318BFFE
:10408000002A01D118467047002303638162222170
:104090008285C285436480F842100169006819B1C5
:1040A000C16841F48071C1604169002341F00101A0
:1040B0004161C16841F02001C160184670470000AD
:1040C00080B540F2903040F23821C2F20000C2F2D6
:1040D0000001283050310822FFF7C8FF40F2C0002D
:1040E000C2F20000018A0131018280BD70470000E8
:1040F000FEE700002DE9F04F81B040F60004C4F265
:10410000020405462046402100224FF0000AFDF738
:104110003FFD204680210022FDF73AFD40F2C0011C
:10412000C2F200010120087201F006FB40F23820C3
:10413000C2F2000000EB050B9BF8621008292BD09F
:10414000690101F1160440F2143100F1380640F221
:10415000B81040F2B029C2F20001C2F20000C2F26F
:1041600000094FF0040801F1540500F1700700BF89
:10417000494641F8304F284632463B46C1E902AA3B
:10418000C1F81080FCF73AFD4FF4FA60FDF708FC27
:104190009BF862000828EBD140F6000440F2C0050D
:1041A000C4F20204C2F2000520464021012285F833
:1041B00006A0FDF7EDFC204680210122FDF7E8FC7A
:1041C00085F808A001B0BDE8F08F000040F22C5047
:1041D000C2F20000FDF7ECBC40F22C50C2F200002D
:1041E000FDF78ABD10B582B000210191806B40F2CD
:1041F0005801C2F2000190F83DC009684BF28952A3
:10420000C908C1F2F842A1FB0212110A232251434C
:104210000191019911B3019901390191016809686E
:1042200089051FD50199C9B1019901390191016829
:104230000968890516D5019981B101990139019162
:104240000168096889050DD5019939B101990139CC
:104250000191016809688905DBD403E0016C41F034
:1042600020010164446B4FF0000E002C1CBF0021A4
:10427000E163816B00291CBF0022CA630268002C25
:10428000136823F480631360A0F82AE018BFC4F811
:1042900050E000291CBF00230B65116821F00101CB
:1042A000116090F83D1060290AD1202180F83D105E
:1042B000002180F83E100164FDF776FC02B010BDCD
:1042C0000CF02801282911D1116841F00101116079
:1042D000116841F48061116000210163282180F898
:1042E0003D10FEF703FA02B010BD00BF202180F898
:1042F0003D10002180F83E10FEF7F8F902B010BD25
:1043000010B5044690F83D1090F83E00402801D0CA
:1043100010280BD1222909D12068026822F40062FA
:1043200002604268602939D141E000BF01F02800F5
:1043300028282FD100202063282084F83D00206801
:104340004168090538D5416821F400614160606B1E
:1043500090F8351001294DD1A06B44F2E511C0F65B
:1043600000010165FDF774F9002856D02068416905
:10437000490606D50069616A0870616A20680131E2
:104380006162016821F001010160202084F83D0094
:10439000A06B40E020684268602908D012F40061F8
:1043A00005D1202184F83D10002184F83E10002121
:1043B000216341680905C6D494F83D1060294FD1A6
:1043C000202184F83D10002121644169490606D569
:1043D0000069616A0870616A206801316162016880
:1043E00021F0010101602046FDF7DEFB206C000793
:1043F00016D11AE044F2E511C0F600010165FDF79F
:1044000027F950B12168606B0A6822F001020A6046
:10441000202184F83D10016D8847206C000704D0EE
:104420002068416821F4E061416094F83D10206CFF
:10443000282918BF10BD10F004000FD00020CFF6BF
:10444000FF70E06200212020216384F83D002046B7
:1044500084F83E10BDE81040FEF706BA10BD00BF5C
:104460004169490605D50069616A0870606A0130D2
:1044700060622046FEF73AF9206C0007D0D1D4E7FD
:1044800090F83D10026D5AB1026D012A14D10168F5
:10449000826CD2B20A61016D01310165704700BFC3
:1044A000C26C816C012A15D10268C9B21161016D1B
:1044B00002310165704700BF026D022A12D1222924
:1044C00018D101680A6842F480720A60016D0131F6
:1044D000016570470268C1F307211161016D013167
:1044E0000165704700684169090644BF0021016108
:1044F000704700BF428D21290AD14AB1416A026842
:1045000011F8013B13614162418D013941857047CA
:104510002129428D08BF002AEAD101684A6822F4A5
:10452000E0624A600A6842F400720A6000212022B8
:10453000016380F83D2080F83E10FEF79DB9000031
:104540002DE9F04782B0044600689A460368914618
:1045500043F48062026002680B9D42F48072026044
:1045600042690A9ED2070F463FD1711C33D026B94B
:1045700011E000BF4169C90737D1FDF70FFB411BAF
:104580002068B142F6D94169C907F3D109E000BFFB
:104590004169C90729D1FDF701FB20684169C907B5
:1045A000F6D100212022216384F83D2084F83E10BA
:1045B000226C42F02002226484F83C100068C0059E
:1045C00044BF4FF400702064032002B0BDE8F087C0
:1045D0004169C90709D14169C90706D14169C907BC
:1045E00004BF41695FEAC171F2D040F20208C0F233
:1045F000010807F0FE0707612046414632462B4678
:1046000000F074F920B1012002B0BDE8F08700BFCE
:104610000020019020682A46416901918069314655
:1046200001900198204600F025FAB0B9BAF1010FC7
:1046300009D020684FEA19210161204631462A46F7
:1046400000F018FA48B920685FFA89F10161204644
:1046500031462A4600F00EFA60B1206C0428D2D10F
:104660002068016841F400710160012002B0BDE8DA
:10467000F08700BF2068016841F4807101604169E2
:10468000C90728D1711C1CD01EB910E04169C907A7
:1046900021D1FDF783FA411B2068B142F6D9416967
:1046A000C907F3D17DE700BF4169C90713D1FDF701
:1046B00075FA20684169C907F6D172E74169C907EF
:1046C00009D14169C90706D14169C90704BF4169D8
:1046D0005FEAC171F2D047F0010101612046414615
:1046E00032462B4600F002F9002818BF012002B024
:1046F000BDE8F0872DE9F04381B00446006890469C
:104700000268099E42F4807202604269089D9946DF
:10471000D2070F463DD1691C31D065B9FDF73EFA8D
:1047200020684169C9070FD04169C907F6D030E058
:104730004169C9072DD1FDF731FA811B2068A942D3
:10474000F6D94169C907F3D100212022216384F8F9
:104750003D2084F83E10226C42F02002226484F84E
:104760003C100068C00544BF4FF400702064032073
:1047700001B0BDE8F08300BF4169C90709D14169B3
:10478000C90706D14169C90704BF41695FEAC17120
:10479000F2D007F0FE0101610221C0F201012046C2
:1047A0002A46334600F0A2F820B1012001B0BDE84E
:1047B000F08300BF002000902068324641690091DC
:1047C0008069294600900098204600F053F958B1BE
:1047D000206C0428E9D12068016841F4007101606F
:1047E000012001B0BDE8F083B9F1010F0AD02068C3
:1047F0004FEA1821016120462946324600F03AF975
:104800000028E5D120685FFA88F10161002001B03D
:10481000BDE8F08370B50368044653F8140F4007F1
:104820002DD40E46481C24D066BB00BF1868400536
:104830004AD4FDF7B3F9236853F8140F400733D572
:1048400018684007F2D51AE0186840053CD418688B
:10485000400714D41868400536D4186840070ED4B1
:104860001868400530D4186840074FF0000048BF72
:1048700070BD1868400527D418684007E4D50020AB
:1048800070BD00BF154603E053F8140F4007F6D47F
:104890001868400518D4FDF781F9401B2368B04221
:1048A000F2D958694007EFD400202021206384F812
:1048B0003D1084F83E00216C41F02001216484F811
:1048C0003C00012070BD00BF6FF4806018600020C4
:1048D0002021206384F83D1084F83E00216C41F0D3
:1048E0000401216484F83C00012070BDF0B581B062
:1048F0001D460368044658698FB23840B84203D158
:10490000002001B0F0BD00BF1646002A47D0701C41
:1049100022D15869400545D458693840B842EFD093
:10492000586940053ED458693840B842E8D05869C3
:10493000400537D458693840B842E1D0586940053D
:1049400030D458693840B8424FF00000E1D142E01D
:1049500058693840B8423DD05869400522D4FDF727
:104960001DF9401B2368B042F2D958693840B8425B
:10497000EED000202021206384F83D1084F83E0012
:10498000216C41F020011EE0FDF708F92368586909
:104990003840B842EDD158693840B842B0D0586973
:1049A0004005F1D51868202140F4007018606FF4BC
:1049B000806058610020206384F83D1084F83E0038
:1049C000216C41F00401216484F83C00012001B015
:1049D000F0BD00BF002001B0F0BD000070B504467E
:1049E0000068154650F8143F5A0641D40E4629B9BE
:1049F0002AE000BF50F8141F490639D40168C906DF
:104A000025D4FDF7CBF8411B2068B142F2D94169AA
:104A10004906EFD400202021206384F83D1084F85B
:104A20003E00216C41F02001216484F83C0001200B
:104A300070BD00BFFDF7B2F8206850F8141F49069A
:104A4000E8D50168490613D40168C906F2D56FF0AC
:104A50001001016000202021206384F83D1084F8BB
:104A60003E00216C216484F83C00012070BD00BF31
:104A7000002070BD70B50368044653F8140F00069B
:104A80002DD40E46481C24D066BB00BF18684005D4
:104A90004AD4FDF783F8236853F8140F000633D582
:104AA00018680006F2D51AE0186840053CD418686A
:104AB000000614D41868400536D4186800060ED4D1
:104AC0001868400530D4186800064FF0000048BF51
:104AD00070BD1868400527D418680006E4D500208A
:104AE00070BD00BF154603E053F8140F0006F6D45E
:104AF0001868400518D4FDF751F8401B2368B042F0
:104B0000F2D958690006EFD400202021206384F8F0
:104B10003D1084F83E00216C41F02001216484F8AE
:104B20003C00012070BD00BF6FF480601860002061
:104B30002021206384F83D1084F83E00216C41F070
:104B40000401216484F83C00012070BD2DE9F04788
:104B500040F23C10C2F20000C16B0131C163002081
:104B6000C4F202004021FDF70DF840F2C00C40F203
:104B70003823002818BF0120C2F2000CC2F2000343
:104B80008CF8000093F8500040F20008C2F20008D0
:104B9000AA2808F1050A05D0FF2806D108F1060069
:104BA00001E000BF50460022027093F851E008F186
:104BB0000605BEF1AA0F0DD0BEF1FF0F28460AD0A0
:104BC00093F85290B9F1FF0F0CD0B9F1AA0F0CD1A4
:104BD000504608E050460122027093F85290B9F115
:104BE000FF0FF2D128460222027093F85300FF28EB
:104BF00004D0AA2805D1544601E000BF2C46032268
:104C0000227093F85460FF2E04D0AA2E05D154468A
:104C100001E000BF2C460422227093F85570FF2F4C
:104C200004D0AA2F05D1544601E000BF2C4605222E
:104C3000227093F85640FF2C04D0AA2C05D152467E
:104C400001E000BF2A460621117093F85720FF2A81
:104C500002D0AA2A02D155460721297098F80610D9
:104C600098F8052081F0070111434FF0020208BFB8
:104C70000122012A8CF80E2006D0022A01D101F06F
:104C8000D7F998F8020011E098F8011088F800E0D0
:104C9000B9F1000F18BF494688F8011088F80200E2
:104CA00088F803608CF803708CF80440002804BF77
:104CB000012088F80200BDE8F08700002DE9F04FE0
:104CC00081B040F20000C2F20000007840F2C0085B
:104CD0000128C2F2000823D198F9032098F80500B2
:104CE000D1B2884209D0022904D866A050F8220027
:104CF000C8F8200088F805100846012817D00228B7
:104D00000AD140F29030C2F20000018B408B084380
:104D100000B2B0F1FF3F1BDD98ED080A1AE000BFBA
:104D200098F803000021C8F820100128E7D140F2CC
:104D30009030C2F20000B0F918109FED550AC72953
:104D400008DCB0F91A00C728D8BF98ED080A01E0BE
:104D50009FED4F0A98ED091A88ED080AB4EE401A43
:104D6000F1EE10FA00F08A8040F2B024C2F20004A2
:104D700040F28D1044F8300F40F21430C2F20000BF
:104D800040F2382A00F1540740F2B810C2F2000A8B
:104D9000C2F200000AF1380500F170064FF0000978
:104DA0004FF0040B384621462A46334684F81490C7
:104DB000C4E90199C4E9039B8AED0E0AFBF71EFFC3
:104DC0000120FCF7EDFDD8F81C0021460130C8F8A1
:104DD0001C0038462A463346FBF710FF0120FCF73B
:104DE000DFFDD8F81C0021460130C8F81C00384609
:104DF0002A463346FBF702FF0120FCF7D1FDD8E934
:104E000007012A460130C8F81C0040F2AD10CAE97B
:104E10000E19C4E9000938462146334684F8149037
:104E2000C4E90299C4F810B0FBF7E8FE0120FCF7D2
:104E3000B7FDD8F81C0021460130C8F81C003846E0
:104E40002A463346FBF7DAFE0120FCF7A9FDD8F825
:104E50001C0021460130C8F81C0038462A4633465B
:104E6000FBF7CCFE0120FCF79BFDD8E90701CAE95E
:104E70000E990130C8F81C00C8F8241001B0BDE834
:104E8000F08F00BF0000000000002041000020C1A2
:104E900000000000FEE70000FEE7000070B52DED09
:104EA000028B40F20004C2F20004607800284BD06C
:104EB000E179002948D02178012945D040F25441B8
:104EC000C2F2000191ED010AB0EE008AB4EE480A88
:104ED000B8EE003A91ED021AF1EE10FA4FF000022E
:104EE000B4EE430A4FF0000391ED032AD8BF01222C
:104EF000F1EE10FAA8BF01231A40B4EE481A0023BD
:104F0000F1EE10FAD8BF01231A40B4EE431A002381
:104F1000F1EE10FAA8BF0123B4EE482A00211A408E
:104F2000F1EE10FA4FF00003B4EE432AD8BF01238C
:104F30001A40F1EE10FAA8BF01211140217121D0D1
:104F4000B1EE040A35E000BF9FED648A0120B0EEA7
:104F5000480A00F0C9F80120FCF722FD0220B0EE5B
:104F6000480A00F0C1F80120FCF71AFD0320B0EE5A
:104F7000480A00F0B9F80120BDEC028BBDE8704092
:104F8000FCF70EBD00EB40008000A17800EE100A97
:104F9000B8EEC01AB2EE080A012908BFB0EE410A05
:104FA000B3EE081AB4EE410AF1EE10FAC8BFB0EE43
:104FB000410A84ED040A00F07FFEA07840F2C005AB
:104FC00040F23C160128C2F200051CBF0020C5E9D2
:104FD0001100C2F2000696ED0A0ABDEEC02A94ED59
:104FE000040AB8EEC21A38EE403AB4EE413AF1EE95
:104FF00010FA85ED132A0DDA95ED112AB8EEC22AC2
:1050000030EE022A32EE011ABDEEC11A11EE100A7C
:10501000207200E0207A95ED121A697AB8EEC11A72
:1050200030EE010ABDEEC00A814210EE100A607235
:105030001FD0FCF7B3FD716C401A642819D3FCF73C
:10504000ADFD697A227A7064914201D2012001E0BB
:1050500002D9FF2001446972A078022804BF4942A6
:105060006972C8B200EE100AB8EE400A012000F0E2
:105070006BFEA87A617A88420ED0FCF78FFDB16C86
:10508000401A642808D3FCF789FDA97A627AB064D3
:10509000914205D2012005E0BDEC028B70BD00BF3E
:1050A00002D9FF200144A972C8B200EE100AB8EE7E
:1050B000400A022000F048FE0120FCF771FCA87AAB
:1050C00000EE100AB8EE400A032000F03DFE012079
:1050D000BDEC028BBDE87040FCF762BC0000000034
:1050E0007047000070470000032803D8012818BF4C
:1050F000B1EE400A2DE9F04740F2B0244001C2F27F
:1051000000040E3044F8300F4FF000080420C4E9CA
:10511000038040F21430C2F2000040F2382900F15E
:10512000540740F2B810C2F20009C2F2000009F1BF
:10513000380500F17006B1EE400A384621462A468D
:10514000334684F81480C4E9018889ED0E0AFBF720
:1051500055FD0120FCF724FC40F2C00AC2F2000A0F
:10516000DAF81C0021460130CAF81C0038462A46ED
:105170003346FBF743FD0120FCF712FCDAF81C0074
:1051800021460130CAF81C0038462A463346FBF750
:1051900035FD0120FCF704FCDAF81C00C9E90E8893
:1051A0000130CAF81C00BDE8F087000000000000D4
:1051B0002DE9F04F81B02DED108B82B040F200024E
:1051C000C2F20002907840F2C00A01380428C2F20C
:1051D000000A00F2D580DFE800F01FC1D3B7D90084
:1051E000C173EFE192E3D83F9A9999999999064052
:1051F000000000000000000000000000000024404B
:1052000050455254FB2109400000000000806640D8
:105210000000000000908A40D678B6F15A0038BFEE
:10522000C6F15A0002F07BFB1FED130B53EC102B61
:1052300002F0DCFB1FED140B044653EC102B0D4663
:1052400002F0E4F91FED160B5C2E53EC102B1FED52
:10525000160B3CBF1D461446592E24BF2946204636
:1052600055EC104B22462B4602F0C0FB41EC100BD4
:1052700001F0FEF951EC100B22462B4602F0C6F964
:1052800041EC100B40F2382BC2F2000B8BED020BFD
:105290001FED250B58EC109B4A46434602F0A6FB37
:1052A0001FED270B56EC107B3A46334602F0AEF961
:1052B00041EC100B01F04CFA53EC102B1FED2C0BB2
:1052C00054EC105B2846214602F0A0F902F0B8F831
:1052D000CAF8500002F012FE9BED020B01908B46C3
:1052E00051EC100B4A46434602F080FB3A463346E7
:1052F00002F08CF941EC100B01F08EFA53EC102BFC
:105300002846214640F20004C2F2000402F07EF971
:10531000024601980B46594602F002FD02F090F851
:1053200094F8038000EE100AB8F1580FCAF8540040
:1053300000F2FE809AED141A9FEDEC2A31EE400A3D
:1053400030EE020A03E100BF0020CAE9110046F274
:105350006660CBF686709FEDEF8A20E00020CAE9F8
:10536000110000200021C4F2C000CCF2C001CAE943
:105370001700CAF86410B1EE089AB9EE088A14E072
:105380009FEDE68A0020CAE9110008E00020CAE982
:10539000110046F26660C3F686709FEDDD8ACAE9A9
:1053A0001700B0EE489ACAF864009AED1A0A40F263
:1053B000B024B4EE490A40F2143140F2B812F1EED2
:1053C00010FAC2F20004C2F20001C2F2000255D08B
:1053D00040F2382BEC202546C2F2000B45F8300F86
:1053E0004FF0000904200BF1380801F1540602F1D6
:1053F0007007C5E903903046294642463B4685F88A
:105400001490C5E901998BED0E9AFBF7F7FB01208B
:10541000FCF7C6FADAF81C0029460130CAF81C006D
:10542000304642463B46FBF7E9FB0120FCF7B8FA61
:10543000DAF81C0029460130CAF81C003046424602
:105440003B46FBF7DBFB0120FCF7AAFADAF81C006D
:10545000CBE90E990130CAF81C000120FCF7A0FA34
:1054600040F2B81240F21431DAF860009AED198A6D
:10547000C2F20002C2F20001CAF868009AED1B0AEB
:10548000B4EE480AF1EE10FA4BD040F238294FF44E
:105490008670C2F2000944F8300F4FF00008042073
:1054A00009F1380501F1540702F17006C4E90380DF
:1054B000384621462A46334684F81480C4E90188D8
:1054C00089ED0E8AFBF79AFB0120FCF769FADAF8FE
:1054D0001C0021460130CAF81C0038462A463346D3
:1054E000FBF78CFB0120FCF75BFADAF81C00214685
:1054F0000130CAF81C0038462A463346FBF77EFBCB
:105500000120FCF74DFADAF81C00C9E90E880130D9
:10551000CAF81C000120FCF743FADAF86400CAF864
:105520006C0002B0BDEC108B01B0BDE8F08F00BF85
:105530009AED141A9FED782A31EE400A30EE021AE5
:105540009FED760AB8F15B0F88BFB0EE410A9FED80
:1055500074AA40F2382980EE0ACAC2F2000999ED15
:10556000020B9FED631B51EC100B53EC112B8AEDDA
:1055700016CA02F03BFA9FED600B53EC102B02F0C1
:1055800045F801F05DFF94ED04DAB3EE080A8DEE04
:10559000000A09EE100AB1EE49BAB0EE4B1AB8F1A2
:1055A000590F38BFB0EE491AB1EE418A8AED171A89
:1055B0008AED181A8AED198A10EE100A02F09EFC84
:1055C00041EC100B04461CEE100A0D4689ED0A0B47
:1055D00002F094FC9FED4A0B06460F4653EC102B4D
:1055E0002046294602F002FA02460B46304639466A
:1055F00002F00CF841EC100B9FED4A1A89ED040BF8
:105600003CEE010A044610EE100A0D4602F076FC4C
:1056100022462B4601F0FAFF9FED3B0B56EC107B28
:105620003A46334602F0E2F901F00AFF9FED3EFAF6
:1056300000EE100A80EE0F0ADFED3C8ADFED3C9AA7
:1056400020EE0A0A80EE280A20EE290A30EE4DEA02
:105650001EEE100A02F052FC41EC100B9FED351AC1
:1056600089ED060B3CEE010A10EE100A02F046FC32
:1056700022462B4601F0CAFF3A46334602F0B6F9FD
:1056800001F0DEFE00EE100A80EE0F0A20EE0A0A9C
:1056900080EE280A20EE290A30EE4DAA1AEE100AF2
:1056A00002F02CFC41EC100BB8F1580F89ED080BFF
:1056B00008D8BDEECE0ABDEECA1A8AED110A8AEDEF
:1056C000121A72E6B8F15C0F0AD3BDEECA0ABDEE3B
:1056D000CE1A8AED110A8AED121AB0EE4B9A64E6E0
:1056E0000020CAE91100B0EE4B9A5EE6004098C473
:1056F00000000000000053400000000000807640E1
:10570000EE7C3F355EBAD13FCDCCCCCCCCCC0C407E
:105710006666863F666686BF0040984400000000CB
:1057200000007A44A01AAFBF14E7AA3F0000614509
:105730000000E442A01AAF3F2DE9F0472DED028BA7
:105740009FEDD58A0120B0EE480AFFF7CDFC02207C
:10575000B0EE480AFFF7C8FC0320B0EE480AFFF796
:10576000C3FC40F2B025C2F20005ED2045F8300F31
:1057700040F21430C2F2000040F2382400F1540725
:1057800040F2B8104FF00008C2F20004C2F200006C
:1057900044F8388F00F170064FF0040A3846294665
:1057A0002246334685F81480C5E90188C5E9038A95
:1057B000FBF724FA0120FCF7F3F840F2C009C2F22B
:1057C0000009D9F81C0029460130C9F81C003846E8
:1057D00022463346FBF712FA0120FCF7E1F8D9F82C
:1057E0001C0029460130C9F81C00384622463346C1
:1057F000FBF704FA0120FCF7D3F8D9F81C0029467E
:105800000130C9F81C0040F20D10C5E90008384607
:1058100022463346C4E9008885F81480C5E9028829
:10582000C5F810A0FBF7EAF90120FCF7B9F8D9F8A0
:105830001C0029460130C9F81C0038462246334670
:10584000FBF7DCF90120FCF7ABF8D9F81C0029467E
:105850000130C9F81C00384622463346FBF7CEF922
:105860000120FCF79DF8D9F81C0029460130C9F841
:105870001C0040F22D10C5E9000838462246334688
:10588000C4E9008885F81480C5E90288C5F810A02D
:10589000FBF7B4F90120FCF783F8D9F81C0029467E
:1058A0000130C9F81C00384622463346FBF7A6F9FA
:1058B0000120FCF775F8D9F81C0029460130C9F819
:1058C0001C00384622463346FBF798F90120FCF7C6
:1058D00067F8D9F81C0029460130C9F81C0040F2CD
:1058E0004D10C5E90008384622463346C4E9008811
:1058F00085F81480C5E90288C5F810A0FBF77EF989
:105900000120FCF74DF8D9F81C0029460130C9F8F0
:105910001C00384622463346FBF770F90120FCF79D
:105920003FF8D9F81C0029460130C9F81C00384658
:1059300022463346FBF762F90120FCF731F8D9F82B
:105940001C0029460130C9F81C0040F26D10C5E961
:105950000008384622463346C4E9008885F814809A
:10596000C5E90288C5F810A0FBF748F90120FCF74B
:1059700017F8D9F81C0029460130C9F81C00384630
:1059800022463346FBF73AF90120FCF709F8D9F82B
:105990001C0029460130C9F81C003846224633460F
:1059A000FBF72CF90120FBF7FBFFD9F81C00294677
:1059B0000130C9F81C0040F28D10C5E900083846D6
:1059C00022463346C4E9008885F81480C5E9028878
:1059D000C5F810A0FBF712F90120FBF7E1FFD9F899
:1059E0001C0029460130C9F81C00384622463346BF
:1059F000FBF704F90120FBF7D3FFD9F81C00294677
:105A00000130C9F81C00384622463346FBF7F6F849
:105A10000120FBF7C5FFD9F81C0029460130C9F861
:105A20001C0040F2AD10C5E9000838462246334656
:105A3000C4E9008885F81480C5E90288C5F810A07B
:105A4000FBF7DCF80120FBF7ABFFD9F81C00294677
:105A50000130C9F81C00384622463346FBF7CEF821
:105A60000120FBF79DFFD9F81C0029460130C9F839
:105A70001C00384622463346FBF7C0F80120FBF7EE
:105A80008FFFD9F81C00C4E900880130C9F81C0058
:105A9000BDEC028BBDE8F08700000000FDF79AB96D
:105AA00080B594B0002043F64001CDE90B00CDE96C
:105AB00009000690CDE90400CDE902000190C4F28E
:105AC00002010A6842F080520A60096801F08051C0
:105AD00001910199019047F20000C4F200000168B1
