:020000040800F2
:10000000380C0020650200082D440008113C00084F
:1000100029440008FD040008014900080000000010
:10002000000000000000000000000000354400084F
:100030003D0500080000000031440008E5440008C8
:100040007F0200087F0200087F0200087F0200088C
:100050007F0200087F0200087F0200087F0200087C
:100060007F0200087F0200087F0200087F0200086C
:100070007F0200087F0200087F0200087F0200085C
:100080007F0200087F0200087F0200087F0200084C
:10009000010500080D0500087F0200087F02000826
:1000A0007F0200087F0200087F0200087F0200082C
:1000B0007F0200087F0200087F020008213C000840
:1000C000153C00087F0200087F0200087F0200083C
:1000D0007F0200087F0200087F0200087F020008FC
:1000E0007F0200087F0200087F0200087F020008EC
:1000F0007F020008A94500087F02000831050008BA
:100100007F0200087F0200087F0200087F020008CB
:10011000FD460008094700087F0200087F0200082A
:100120007F0200087F0200087F0200087F020008AB
:100130007F02000800000000000000007F020008AD
:1001400019050008250500087F0200087F02000845
:100150007F0200087F0200087F0200087F0200087B
:100160007F0200087F0200087F0200087F0200086B
:100170007F0200087F0200087F02000800000000E4
:10018000000000007F0200080000000000000000E6
:100190007F02000800000000000000007F0200084D
:1001A0000000000000000000000000007F020008C6
:1001B0007F0200087F0200087F0200087F0200081B
:1001C0007F02000800F002F800F03CF80AA090E876
:1001D000000C82448344AAF10107DA4501D100F002
:1001E00031F8AFF2090EBAE80F0013F0010F18BF93
:1001F000FB1A43F001031847CC540000EC540000F4
:10020000103A24BF78C878C1FAD8520724BF30C842
:1002100030C144BF04680C60704700000023002414
:1002200000250026103A28BF78C1FBD8520728BF06
:1002300030C148BF0B6070471FB505F01AFA1FBDEB
:1002400010B510BD00F024F91146FFF7F5FF04F0DA
:1002500047FC00F042F903B4FFF7F2FF03BC00F0E3
:1002600045F900000948804709480047FEE7FEE7D6
:10027000FEE7FEE7FEE7FEE7FEE7FEE7FEE7FEE756
:1002800004480549054A064B70470000954500089B
:10029000C501000838060020380C0020380800206E
:1002A0003808002053EA020C00F069802DE9F04B79
:1002B0004FF00006002B1FBFB3FA83F503FA05F4D5
:1002C00024FA05F65E4012BF1643B2FA82F502FA2E
:1002D00005F4C5F120051EBF22FA05FC44EA0C0412
:1002E000203556EA044C4FEA144418BF641C4FF002
:1002F00000084FF00009904271EB030C39D300293C
:1003000019BFB1FA81F701FA07F6B0FA80F700FADF
:1003100007F6C7F120071EBF20FA07FC46EA0C06C5
:100320002037B6FBF4FCA7EB0507103F07F01F0BC7
:10033000CBF120062CFA06F60CFA0BFB44BFB346B1
:100340000026202FA4BF5E464FF0000B5BEA060C90
:1003500008BF4FF0010B19EB0B0948EB0608ABFB8C
:10036000027C06FB02CC0BFB03CCC01B71EB0C0127
:10037000C1E70B46024641464846BDE8F08B13B53F
:10038000084318BF4FF0FF300146AFF30080BDE8CF
:100390001C407047032A40F2308010F0030C00F03C
:1003A000158011F8013BBCF1020F624498BF11F8AF
:1003B00001CB00F8013B38BF11F8013BA2F1040268
:1003C00098BF00F801CB38BF00F8013B11F00303E0
:1003D00000F02580083AC0F0088051F8043B083A44
:1003E00051F804CBA0E80810F5E7121D5CBF51F8E6
:1003F000043B40F8043BAFF30080D20724BF11F860
:10040000013B11F801CB48BF11F8012B24BF00F8C4
:10041000013B00F801CB48BF00F8012B704710B535
:10042000203AC0F00B80B1E81850A0E81850B1E8AD
:100430001850A0E81850203ABFF4F5AF5FEA027CEC
:1004400024BFB1E81850A0E8185044BF18C918C01C
:10045000BDE810405FEA827C24BF51F8043B40F8BD
:10046000043B08BF7047D20728BF31F8023B48BFA2
:1004700011F8012B28BF20F8023B48BF00F8012BE0
:1004800070477047704770470048704778000020F9
:100490007546FFF7F9FFAE4605006946534620F062
:1004A0000700854618B020B5FFF7EAFEBDE82040FA
:1004B0004FF000064FF000074FF000084FF0000B20
:1004C000AC46ACE8C009ACE8C009ACE8C009ACE88F
:1004D000C00921F007018D46704710B50446AFF3FF
:1004E00000802046BDE81040FFF7B5BE0149182046
:1004F000ABBEFEE72600020070470000FEE70000EA
:1005000040F22840C2F2000000F0FCBB40F228405C
:10051000C2F2000000F0F6BB40F23430C2F200003C
:1005200000F0F0BB40F23430C2F2000000F0EABB51
:1005300040F25040C2F2000001F0A2B87047000043
:100540009FED118A0120B0EE480A03F075FF0220EA
:10055000B0EE480A03F070FF0320B0EE480A03F043
:100560006BFF0420B0EE480A03F066FF40F2343916
:1005700040F2D80AAD244FF0000BC2F20009C2F2DB
:10058000000A40F2AD2801E00000000040F2D01562
:1005900040F24826C2F20005C2F2000645F870BFDC
:1005A00046F8644F0420A5F1400786F814B0C6E968
:1005B00001BB3061484631462A463B46C6F80CB07E
:1005C00000F048FA012001F0E9F9DAF8200031469C
:1005D0000130CAF8200048462A463B4600F03AFA65
:1005E000012001F0DBF9DAF8200031460130CAF8C9
:1005F000200048462A463B4600F02CFA012001F034
:10060000CDF9DAF82000203401304445CAF8200042
:10061000C5F800B0C5F804B0B8D11FED258A012097
:10062000B0EE480A03F008FF0220B0EE480A03F0DB
:1006300003FF0320B0EE480A03F0FEFE0420B0EEF4
:10064000480A03F0F9FE40F23439AD244FF0000BB4
:10065000C2F2000940F2AD2840F2D01540F248261F
:10066000C2F20005C2F2000645F870BF46F8644FBA
:100670000420A5F1400786F814B0C6E901BB30613B
:10068000484631462A463B46C6F80CB000F0E2F92F
:10069000012001F083F9DAF8200031460130CAF870
:1006A000200048462A463B4600F0D4F9012001F0DC
:1006B00075F9DAF8200031460130CAF820004846C2
:1006C0002A463B4600F0C6F9012001F067F9DAF846
:1006D0002000203401304445CAF82000C5F800B09D
:1006E000C5F804B0B8D19FEDCF8A0120B0EE480A1A
:1006F00003F0A2FE0220B0EE480A03F09DFE0320A4
:10070000B0EE480A03F098FE0420B0EE480A03F069
:1007100093FE40F23439AD244FF0000BC2F20009D1
:1007200040F2AD2840F2D01540F24826C2F2000552
:10073000C2F2000645F870BF46F8644F0420A5F1E8
:10074000400786F814B0C6E901BB3061484631461F
:100750002A463B46C6F80CB000F07CF9012001F0B7
:100760001DF9DAF8200031460130CAF82000484669
:100770002A463B4600F06EF9012001F00FF9DAF845
:10078000200031460130CAF8200048462A463B4640
:1007900000F060F9012001F001F9DAF820002034BE
:1007A00001304445CAF82000C5F800B0C5F804B0CF
:1007B000B8D19FED9C8A0120B0EE480A03F03CFEC0
:1007C0000220B0EE480A03F037FE0320B0EE480ADC
:1007D00003F032FE0420B0EE480A03F02DFE40F292
:1007E0003439AD244FF0000BC2F2000940F2AD28BD
:1007F00040F2D01540F24826C2F20005C2F20006CF
:1008000045F870BF46F8644F0420A5F1400786F80C
:1008100014B0C6E901BB3061484631462A463B4622
:10082000C6F80CB000F016F9012001F0B7F8DAF8BC
:10083000200031460130CAF8200048462A463B468F
:1008400000F008F9012001F0A9F8DAF8200031469B
:100850000130CAF8200048462A463B4600F0FAF824
:10086000012001F09BF8DAF82000203401304445E3
:10087000CAF82000C5F800B0C5F804B0B8D19FEDA3
:10088000698A0120B0EE480A03F0D6FD0220B0EEDE
:10089000480A03F0D1FD0320B0EE480A03F0CCFD76
:1008A0000420B0EE480A03F0C7FD40F23439AD240D
:1008B0004FF0000BC2F2000940F2AD2840F2D01513
:1008C00040F24826C2F20005C2F2000645F870BFA9
:1008D00046F8644F0420A5F1400786F814B0C6E935
:1008E00001BB3061484631462A463B46C6F80CB04B
:1008F00000F0B0F8012001F051F8DAF8200031469C
:100900000130CAF8200048462A463B4600F0A2F8CB
:10091000012001F043F8DAF8200031460130CAF82E
:10092000200048462A463B4600F094F8012001F09A
:1009300035F8DAF82000203401304445CAF82000A8
:10094000C5F800B0C5F804B0B8D19FED368A40F2C2
:10095000343472B604254FF00008C2F2000440F2AD
:10096000AD2900BF0120B0EE480A03F065FD02206A
:10097000B0EE480A03F060FD0320B0EE480A03F031
:100980005BFD0420B0EE480A03F056FD4FF0AD0BBE
:1009900040F24826C2F2000646F864BF86F814808A
:1009A000C6E90188C6E9038540F2D015C2F2000508
:1009B00045F8708FA5F14007204631462A463B4650
:1009C00000F048F8012000F0E9FFDAF82000314695
:1009D0000130CAF8200020462A463B4600F03AF88B
:1009E000012000F0DBFFDAF8200031460130CAF8C0
:1009F000200020462A463B4600F02CF8012000F05B
:100A0000CDFFDAF820000BF1200B0130C5F8008093
:100A1000CB45C5F804804FF00405CAF82000B7D1D3
:100A2000A0E700BF0000000090F82020013A012A52
:100A300007D8006800F11402002013681943116000
:100A4000704700F1240201204FF4802113681943FC
:100A50001160704710B590F820E0D0F800C0AEF1FA
:100A6000010EBEF1010FDCF808E00ED81EF0E05FC9
:100A700014D0CEF3016E012000FA0EF018608B68DE
:100A8000ABB1486843EAC00313E000F12401012040
:100A90004FF480220B681A430A6010BD00F1240154
:100AA00001204FF400120B681A430A6010BD086859
:100AB0004305D1E9030403430CEB0E10C0F8803169
:100AC000C0F88441097D012905D100F5C2710B6888
:100AD00043F480730B605168C0F88C11126800F504
:100AE000C071C0F88821002001220B681A430A60F7
:100AF00010BD0000B0B590F82020013A012A2FD88F
:100B000046F20060C4F20000026842F00102026096
:100B1000026822F47C520260D1F814E0CC694A6A7F
:100B20000368012C43EA022202600EF01F024FF01C
:100B3000010303FA02F2C3696FEA020C23EA02031B
:100B4000C36113D02CBBC36803EA0C03C360CB683A
:100B50008C8844EA034300EBCE0423640B4611E087
:100B6000416A41F4802141620120B0BDC368134352
:100B7000C3600B688C8844EA034300EBCE04236413
:100B800001F10C038C681B8843EA044300EBCE049C
:100B9000636443688D6943EA0204D1F810E0096A8E
:100BA000002D08BF03EA0C0444604369BEF1000F46
:100BB00043EA020408BF03EA0C040129446102D19C
:100BC000C1691143C161016821F001010160002088
:100BD000B0BD00007047000010B590F82040013C07
:100BE000012C78D8D0F800C000297DD0DCF8104066
:100BF000A4077DD00CEB011CDCF8B0410CF5D87ECD
:100C000014F004049460DCF8B04119BFE4085460A7
:100C1000640D1460DEF800400CF5DA7E04F0020486
:100C2000D460DCF8B44124075ABFDEF8004004F079
:100C30000F0408241461DEF800400029C4F30724DF
:100C40009461DEF800404FEA14445461DCF8B821A6
:100C50001A70026802EB0112D2F8B8214FEA122290
:100C60005A70026802EB0112D2F8B8214FEA124220
:100C70009A70026802EB0112D2F8B8214FEA1262B0
:100C8000DA70026802EB0112D2F8BC211A71026814
:100C900002EB0112D2F8BC214FEA12225A7102680B
:100CA00002EB0112D2F8BC214FEA12429A7102689B
:100CB00002EB0112D2F8BC214FEA1262DA7100682D
:100CC00014BF00F1100100F10C01002020220B687C
:100CD0001A430A6010BD00F1240101204FF4802264
:100CE0000B681A430A6010BDDCF80C40A40781D1E0
:100CF00000F1240101204FF400120B681A430A602E
:100D000010BD00002DE9F04F81B00446006846692F
:100D1000D0F804908768D0F80CB0D0F810A0D0F8C4
:100D20001880F10703D1002530071CD423E0F90710
:100D300010D00121BA07816009D4780700F1AA8098
:100D4000380700F1B080204600F02EFC02E020467B
:100D500000F02CFC0025F80500F18480F80300F178
:100D6000AA80300707D51BF0100004D0206845F496
:100D700000751021C160700708D51BF0080005D070
:100D800020680821C160204600F0F8F9B00706D5B8
:100D90002068C068800702D0204600F0F1F9700694
:100DA00007D51AF0100004D0206845F480651021A2
:100DB0000161B00608D51AF0080005D020680821A6
:100DC0000161204600F0DEF9F00606D520680069D2
:100DD000800702D0204600F0D7F9B00308D519F0FB
:100DE000100005D0206810214160204600F0ACFBC7
:100DF000F00308D519F0080005D0206808214160EB
:100E0000204600F0DDFB300440F18F805FEA49703E
:100E100040F1888006F4807008EA102028435FEAD9
:100E20008871014648BF41F00201B20558BF014632
:100E30005FEA48700D4648BF45F00405700558BF8D
:100E40000D4630056ED518F070006BD010380009D3
:100E5000052862D8DFE800F0035356595C5F45F07F
:100E600008055AE020684FF48071BA0581600AD401
:100E7000780512D4380519D4204600F099FBF80300
:100E80007FF56FAF17E0204600F094FBF8037FF585
:100E900068AF10E04FF400655DE705F50055F80315
:100EA0007FF55FAF07E04FF4805554E705F58045C7
:100EB000F8037FF556AF20684FF48031BA038160A4
:100EC0000AD478030FD4380313D4204600F074FBFF
:100ED00030073FF548AF4EE7204600F06FFB300784
:100EE0003FF541AF47E705F5004530073FF53BAF1C
:100EF00041E705F5803530073FF535AF3BE745F075
:100F000010050AE045F0200507E045F0400504E043
:100F100045F0800501E045F480752068816921F085
:100F2000700181612068042141604DB1606A40EA2E
:100F300005012046616201B0BDE8F04FFFF74ABEEF
:100F400001B0BDE8F08F0000B0B5C8B1044690F81C
:100F5000200010B9204600F077F82068016841F0C1
:100F60000101016000F018FE054600BF20684168DD
:100F7000C90707D100F010FE401B0B28F6D312E082
:100F80000120B0BD016821F00201016000F004FE03
:100F9000054600BF2068416889070DD500F0FCFDBB
:100FA000401B0B28F6D3606A052140F400306062D4
:100FB000012084F82010B0BD217E0268012922F0B2
:100FC000800308BF42F080030360617E026801294C
:100FD00022F0400308BF42F040030360A17E026894
:100FE000012922F0200308BF42F020030360E17EC4
:100FF0000268012942F0100308BF22F010030360C9
:10100000217F0268012922F0080308BF42F008038B
:101010000360617F0268012922F0040308BF42F0E7
:1010200004030360D4E901C2D4E9033561691A43BA
:101030002A431143ACF101021143C1610020012197
:10104000606284F82010B0BDB0B586B00021CDE953
:101050000411CDE90211006846F60002C4F2000254
:101060009042019134D046F20041C4F2000188421E
:1010700040F0828040F2D431C2F200010A6843F6A7
:101080004000C4F20200531C0B6052B900210091D1
:10109000016841F000710160016801F00071009188
:1010A00000990021009150F8101C152441F0010115
:1010B00040F8101C50F8100C142500F001000090AE
:1010C00000984FF4C05001900020C4F2020038E0B4
:1010D00043F64000C4F202000091016841F08061D3
:1010E0000160016801F080610091009940F2D43103
:1010F000C2F200010A68531C0B6052B90021009132
:10110000016841F000710160016801F00071009117
:1011100000990021009150F8101C412441F0020177
:1011200040F8101C50F8100C402500F00200009010
:1011300000984FF4405001900020C4F2020000F5E6
:101140008060022102910021039103210491092171
:10115000059101A900F036FC28460021002201F08B
:101160004BFC284601F038FC20460021002201F00B
:1011700043FC204601F030FC06B0B0BD70470000D3
:1011800070470000704700002DE9F04F81B040F239
:10119000C42540F24828C2F20005C2F2000801212D
:1011A0002A464346FFF718FD286840F2D8044FEA64
:1011B0005019C2F2000400F01F0A84F8019084F86C
:1011C00002A0C0F34301617300F001010238072857
:1011D000A17300F20081DFE810F008001F00560044
:1011E0006D00FE00FE009A001301B8F8000000BA7E
:1011F000000C00EE100AB8EE400AA08A84ED130A33
:101200000130A08298F81A00013088F81A00BAF16B
:10121000090F40F0E38052E1D8E900019FEDC61AC2
:1012200000BA00EE100A30EE010A9FEDC42A9FEDCD
:10123000C43AB4EE410A9FEDC31A606540F2000063
:1012400030EE022A30EE033AF1EE10FAB4EE410A23
:10125000B8BFB0EE430AC2F2000009BAF1EE10FACC
:10126000C8BFB0EE420A8163618A80ED090A481C5A
:1012700098F819106082481C88F81900BAF1090F13
:1012800040F0AC801BE1B8F8000000BA000C00EEA2
:10129000100AB8EE400AE08A84ED140A0130E082B8
:1012A00098F81C00013088F81C00BAF1090F40F0D2
:1012B000958004E1B8F90000B8F9025003F0C6FEC9
:1012C0009FED990B57EC106B32463B4603F04EFFF7
:1012D00003F09AFD40F2000BC2F2000BCBF82000A5
:1012E000284603F0B3FE32463B4603F03FFF03F0CF
:1012F0008BFD218BCBF83400481C98F81B10208301
:10130000481C88F81B00BAF1090F67D1D7E0B8F87C
:1013100000009FED871A00BA000C00EE100AB8EE2C
:10132000400AE08B20EE010A0130E08398F82000AB
:101330009FED801A013088F8200040F2000020EE76
:10134000010AC2F2000080ED150A10EE100A04F046
:10135000F5F840F2D01BC2F2000B0446DBF8240083
:101360000D4604F0EBF802460B462046294603F0F2
:10137000FBFF9FED650B074653EC102B0C4603F06B
:1013800075FD9FED630B05460E4653EC102B38465A
:10139000214604F00CF99FED600B002804BF26469F
:1013A0003D4653EC102B2846314603F05FFD9FED80
:1013B0005C0B04460F4653EC102B2846314604F0D4
:1013C0000BF9002804BF37462C462046394603F067
:1013D0001BFDCBF81400BAF1090F70D0BAF1010F60
:1013E00040F08C8058FA89F090F84C1098F804205E
:1013F000013180F84C1080F8222001B0BDE8F08F58
:10140000B8F8000000BA000C00EE100AB8EE400A6E
:10141000A08B98F821100130A08340F20000C2F2A6
:10142000000080ED140A481C88F8210010EE100A14
:1014300004F084F840F2D01BC2F2000B0546DBF842
:1014400020000E4604F07AF802460B462846314644
:1014500003F08AFF9FED2C0B074653EC102B0C4634
:1014600003F004FD9FED2A0B05460E4653EC102BAE
:101470003846214604F09BF89FED270B002804BF57
:1014800026463D4653EC102B2846314603F0EEFC31
:101490009FED230B04460F4653EC102B2846314694
:1014A00004F09AF8002804BF37462C4620463946F7
:1014B00003F0AAFCCBF81000BAF1090F8ED1D8E9DD
:1014C000001040F2D8335FFA89F2C2F20003C8F884
:1014D000080043F8220040F28430C2F2000040F8D5
:1014E000221000EE101A40F23431BDEEC00AC2F2F2
:1014F000000110EE100A01EB4201088501B0BDE8C1
:10150000F08F00BF00BF00BF00000000008086C059
:10151000000000000080764000000000008086404F
:1015200000000000007076C0000000000000B03F26
:101530000000803900003444000034C30000B4C30C
:101540000000B4430000344370470000B0B50446C7
:1015500090F8200001281DD1022084F82000206886
:10156000016821F00101016000F016FB054600BF93
:1015700020684068C00713D000F00EFB401B0B280A
:10158000F6D3606A40F400306062052084F82000E1
:101590000120B0BD606A40F4002060620120B0BD4F
:1015A00000206062B0BD000070470000704700007E
:1015B000704700007047000070470000704700004F
:1015C0007047000070B5866D044600F0E5FA94F8A7
:1015D000351002292ED105462068216C026822F0C0
:1015E00016020260426922F08002426109B9A16CD0
:1015F00019B1016821F008010160016821F00101C1
:1016000001600068C00708D000F0C6FA401B05283A
:1016100017D820680068C007F6D1E06D3F2101FAB5
:1016200000F0B060012084F835000020002184F82B
:10163000341070BD802060650120002184F83410D2
:1016400070BD20206065032084F83500002184F8F7
:10165000341070BD90F83510022909D1052180F8A9
:1016600035100068016821F0010101600020704719
:10167000802141650120704790F8350070470000D7
:10168000F0B581B004460020009040F27000C2F234
:1016900000000268D4E9166048F2B51337680821E3
:1016A000C1F64E3381403942A2FB03250CD022689B
:1016B00013685B0708D5136823F004031360B16057
:1016C000616D41F00101616501218140394208D01D
:1016D00022685269120604D5B160616D41F00201C1
:1016E000616504218140394208D02268126892075E
:1016F00004D5B160616D41F0040161651021814044
:10170000394217D020680268120713D5B160026809
:101710000168520308D4C90508D4016821F0080102
:101720000160216C21B905E0080342D4216C09B1A4
:1017300020468847E16D202000FA01F23A4244D069
:1017400020680368DB0640D5B26094F83530026843
:10175000052B1ED122F016020260426922F080029F
:101760004261226C0AB9A26C1AB1026822F0080226
:1017700002603F208840B060012084F83500216D70
:101780000020002984F8340057D02046884701B053
:10179000F0BD0168520310D4C90512D4016821F0CC
:1017A00010010160012084F83500002084F8340025
:1017B00007E0A16C0029BBD1BCE7080301D4616C30
:1017C00000E0E16B09B120468847606DA8B3606D09
:1017D000C0072ED0052084F835002068A90A0268C9
:1017E00022F001020260009A01328A4200921AD865
:1017F0000268D20717D0009A01328A42009212D8AA
:101800000268D2070FD0009A01328A4200920AD8A9
:101810000268D20707D0009A01328A42009202D8A9
:101820000268D207DFD1012084F83500002084F857
:101830003400E16C09B12046884701B0F0BD0000DA
:101840002DE9F041044600F0A7F9002C4ED00546E2
:10185000022084F835000020216884F834000868EC
:1018600020F0010008600868C00708D000F094F973
:10187000401B05286BD821680868C007F6D10868A6
:1018800048F23F02CFF21002D4E90135024004F1E0
:101890000C0E9EE8C1511A432A431043304338438B
:1018A00040EA0800626A40EA0C00042A40EA0E039B
:1018B0001FD1D4E90A5E206B4EEA03021043086090
:1018C0004869BEF1000F20F0030040EA050040F037
:1018D000040C14D0B8F5005F41D0B8F1000F4ED120
:1018E000022D4FD0012D44D04DB94BE00120BDE871
:1018F000F0810B60486920F0070040EA020C6FF0AD
:101900000F004AF6AB2250FA81F0CAF6AA22A0FBD9
:1019100002231A0945F2BC63C0F600039A5C40F248
:10192000FF335F284FF03F00C1F814C021EA0301E4
:1019300000FA02F088BF0431C4E91612886000235F
:1019400001220020636584F83520BDE8F081032280
:1019500020230320636584F83520BDE8F081032D42
:10196000CDD8012240230120DFE805F0020C02035C
:10197000E8E7AEF1C070B0FA80F0400904E0032D52
:1019800004D3BCD1CEF300600028B8D0012240239C
:101990000120636584F83520BDE8F081B0B50446C8
:1019A00000F0FAF8054640F26800C2F20000007844
:1019B000611C18BF044400BF00F0EEF8401BA042B9
:1019C000FAD3B0BD2DE9F04F82B000F13E4241F6AE
:1019D000000502F1FF77C4F2020507224FEAB7269D
:1019E000A84208BF0622062E38BF4FEAB7224FF0A2
:1019F000010A002400274FF00008009208E000BF11
:101A0000023708F10108202F04F1040400F0B4802B
:101A10000E680AFA08F916EA090FF1D0D1F804A005
:101A20000AF0030BABF10106012E17D803228668DA
:101A300002FA07FECA6826EA0E06BA4032438260FE
:101A40004268CAF3001522EA090205FA08F54FEACE
:101A5000480C6FEA0E062A4342600BE00322BA40AC
:101A6000D643BBF1030FBC4604D1BC464FF0030B79
:101A700022E000BFC2688D68324005FA0CF52A43A7
:101A8000BBF1020FC26017D16FF0030202EA5802E5
:101A9000024404F01C030F25D2F820E005FA03FAF3
:101AA0000D692EEA0A0E05FA03F343EA0E031362E8
:101AB000D1F804A00AF0030B02680BFA0CF33240D1
:101AC0001A431AF4403F4FF0010A026098D00022F6
:101AD00043F644030192C4F202031A6843F6004E2F
:101AE00042F480421A601A68C4F2010E02F4804285
:101AF0000192019A28F003024FF6084C7244CFF687
:101B0000FF7C52F80C3004F00C060F25B540AB43B7
:101B1000009D05FA06F6334342F80C30DEF8082043
:101B20004B6842EA090643F60C4CDD0258BF22EA34
:101B30000906CEF80860C4F2010CDCF800209D0212
:101B400042EA090658BF22EA0906CCF80060DEF82E
:101B500004209D0342EA090658BF22EA0906CEF88E
:101B60000460DEF80020DB0342EA090658BF22EADF
:101B70000906CEF8006043E702B0BDE8F08F000030
:101B80000069084018BF012070470000002A08BF04
:101B9000090481617047000040F23460C2F2000025
:101BA000006870477047000070470000F0B581B0D2
:101BB000044600684769426894F83E1002F4807653
:101BC0003E420FBF00256FF4807242610125BA05C5
:101BD00005D5002E1EBF02356FF4007242617A05F2
:101BE00016D5AEB1628D94F83D30D4F830C02029BE
:101BF00008BF002A22D06FF48062402905F1040555
:101C0000426101D0102903D1016841F400710160E3
:101C1000380506D52EB1206808356FF400614161A2
:101C200000E04DB1206C40EA05012046216401B07E
:101C3000BDE8F04002F088B801B0F0BD43F0080103
:101C4000292909D0282B08BFBCF1210F04D06FF43B
:101C5000806141610435DBE794F83D10E26A202A97
:101C600001D0082A1DD121291DD028293AD10021CF
:101C7000CFF6FF71E162416821F4E06141606FF4E9
:101C800080614161016821F48061016000202021B0
:101C9000206384F83D1084F83E00204600F0DAFD11
:101CA000B6E721291ED10021CFF6FF71E162212183
:101CB0002163202184F83D10002184F83E10426801
:101CC00022F4E06242606FF480624261026822F4B2
:101CD000806202604269120648BF0161204600F03E
:101CE0000FFE95E76FF48061416191E72DE9F041C6
:101CF00082B0D0F800800446C4465CF8043FC06A55
:101D000094F83E5094F83D20402D01D0102D20D164
:101D1000D8F81860D8F81410CF0763D1B0F12A4F63
:101D200000F0EF83B0F52A0F00F0EB8313F400709E
:101D30004FF0010787EA502E18BF11F0080055D068
:101D4000606B616C0028C9B2C8F8101040F00281C5
:101D500002E1206C00280CBFD8F818500025D8F8F4
:101D6000141013F4007618BF11F0020040F0A680A2
:101D7000002E18BF11F0100040F00B8142F0080057
:101D8000292840F09581580540F1BC8101F084007C
:101D9000802840F0B78194F83D00618D002900F063
:101DA000B083616A292811F8012BC8F810206162FC
:101DB000618DA1F101016185618D08BF002940F0AD
:101DC000A083DCF80000282120F48060CCF800001B
:101DD00021202063204684F83D1002B0BDE8F04188
:101DE00000F08EBD980531D44FF0010EBEF1000F0A
:101DF00032D111F002002FD094F83E00E26A216B3C
:101E000094F83D30222B40F0B8804028236D08BF65
:101E1000002B00F0B280206D002840F094812069F2
:101E2000B0F5404F40F08F8100200190D8F81400A9
:101E30000190D8F8180001900198D8F8000040F4FB
:101E40008070C8F80000206D0130B8E2E06AB0F59B
:101E50002A0F57D101205AE0DCF80000760700F481
:101E6000006000F1DC80002840F04B83580540F111
:101E7000A68101F04400402840F0A18194F83D0083
:101E8000222840F03E83E26A608D0428C0F0AC82D4
:101E9000D8F81000616A0870606A01306062608D75
:101EA00001386085608D032840F02B8320684168ED
:101EB00021F48061416002B0BDE8F081206C00280F
:101EC00018BFD8F8185094F83D0000F028002828D2
:101ED00040F0E080DCF80000002320F48060CCF8C3
:101EE0000000012020EA950128064FF0180058BF95
:101EF0000C20225A204684F83C3002B0BDE8F04164
:101F0000FFF752BEE06AB0F12A4F01D10820E0622B
:101F100094F83E0040280CD1206D616C002801F03F
:101F2000FE0018BF40F00100C8F8100002B0BDE884
:101F3000F0812069B0F5804F40F0F48094F83D00C6
:101F4000616C212801F0FE0118BF0131C8F81010A2
:101F5000606B08B1C06B38B9A06B002800F0D1826B
:101F6000C06B002800F0CD82DCF8000040F4006077
:101F7000CCF8000002B0BDE8F08100200190D8F854
:101F800014000190D8F818000190019802B0BDE843
:101F9000F08194F83D50D8F8040020F4E060C8F8CF
:101FA000040000200190D8F814000190D8F8000037
:101FB00040F00100C8F800000198D8F8000020F4B3
:101FC0008060C8F80000D8F80400000540F15E8188
:101FD00045F008002A2840F03981A06B0168496863
:101FE0006185618D19B1216C41F004012164DCF837
:101FF000001021F40061CCF80010FFF73DFB012830
:1020000000F04481A06B43F62D41C0F6000101654C
:10201000FFF720FB002800F03981A06B34E1002895
:1020200040F06F82580540F1EB8001F08400802879
:1020300040F0E68094F83D2094F83E10E06A212AB2
:1020400040F0C181238D002B40F0BD81DCF80010F1
:1020500010F5803F21F4E061CCF8001018BF08288B
:1020600040F07082D8F80000202140F40070C8F8D9
:1020700000000020206384F83D1094F83E1084F89E
:102080003E004029204640F0698202B0BDE8F041A0
:1020900000F0E8BB00200190D8F814100191D8F8A6
:1020A00018100191019984F83C0002B0BDE8F0815C
:1020B000580569D501F04400402865D194F83D00E9
:1020C000618D002900F01D82D8F81010626A2A285C
:1020D0001170616A01F101016162618DA1F101017B
:1020E0006185618D08BF002940F00B82206841683E
:1020F00021F480614160222028212063204684F859
:102100003D1021E1002E18BF11F0040000F0F9810C
:10211000608D002800F0F581606A10F8011BC8F896
:10212000101066E0206D00283FD0206D012840F09F
:10213000E881606C062101EAD010F130C8F8100087
:1021400002B0BDE8F081608D70B1608D012840F073
:102150000081202A18BF082A40F0DF81D8F800004B
:1021600020F48060C8F8000000200190D8F8140026
:102170000190D8F8180001900198D8F8000040F4B8
:102180000070C8F8000019E1002E18BF11F004001B
:1021900000F0B781608D002800F0B381D8F81000FE
:1021A000616A0870606A013023E0606C062101EA10
:1021B000D010F030C8F8100002B0BDE8F08101F096
:1021C0000400012181EA900050EA0E0040F099815C
:1021D000E26A608D042840F07681D8F8040020F48B
:1021E0008060C8F80400D8F81000616A0870606A5E
:1021F00001306062608D0138608502B0BDE8F08119
:1022000001F00400012181EA900050EA0E0040F044
:102210007881212A40F06D81E16A94F83D002128FF
:1022200040F06F81608D00287FF476AFDCF800000D
:1022300011F5803F20F4E060CCF8000018BF0829B9
:102240003FF410AF20293FF40DAF7EE1606B0168D1
:1022500049686185618D19B1216C41F004012164E7
:10226000DCF8001021F40061CCF80010FFF704FA4C
:1022700001280BD0606B43F62D41C0F600010165CB
:10228000FFF7E8F910B1606B016D8847608D60B1B0
:102290002068416949072FD44169490639D4608DC6
:1022A00018B1206C40F004002064206C28B1204656
:1022B00002B0BDE8F04101F047BD2A2D07D1002052
:1022C0002063282084F83D00204600F017FB94F896
:1022D0003D0028282AD10020CFF6FF70E0620021BF
:1022E0002020216384F83D00204684F83E1002B08F
:1022F000BDE8F04100F0AEBA0069616A0870616A39
:10230000206801316162618D013961854169490649
:10231000C5D50069616A0870606A01306062608DCD
:1023200001386085608D0028BBD1BEE7222D206B6F
:1023300018BF222840F0E58000212020216384F886
:102340003D00204684F83E1002B0BDE8F04100F0A8
:10235000D5BA618DD8F8000002290AD1102A00F2FE
:102360003281012114239140C0F20103194200F08F
:102370002A8140F48060C8F80000D8F80400000505
:1023800013D5501E1F2800F21981012101FA00F017
:1023900048F28101C8F20001084200F00F81DCF828
:1023A000000040F48050CCF8000000200190D8F8E4
:1023B00014000190D8F818000190019800202065C1
:1023C00002B0BDE8F081212A04D0222A08BF4029AA
:1023D00040F09780608D002800F0968094F83E00D1
:1023E000402800F0888097E6E16A012800F28C809E
:1023F000022900F089800020019040F27000C2F2B2
:10240000000000684BF28951C008C1F2F841A0FBFE
:102410000101080A00EB8000019001980138019049
:102420000198002800F0DF80D8F80000800520D552
:102430000198013801900198002800F0D480D8F864
:102440000000800515D501980138019001980028F9
:1024500000F0C980D8F8000080050AD5019801383D
:1024600001900198002800F0BE80D8F80000800597
:10247000D3D4D8F8000020F48060C8F80000D8F861
:10248000040020F4E060C8F80400D8F81000616A85
:102490000870606A002101306062608D01386085DB
:1024A000202084F83D0094F83E0084F83E10402837
:1024B00000F0E680082A4FF0000100F0EF80202AAB
:1024C00018BF1221EAE0608D03284CD1DCF800002F
:1024D000022A20F48060CCF800003FF484AE042A85
:1024E0003FF481AED8F8000020F48060C8F8000006
:1024F00079E6402D05D1204602B0BDE8F04101F05B
:10250000E1BC02B0BDE8F081DCF8000020F480609E
:10251000CCF8000002B0BDE8F08112F5803F38D160
:10252000D8F8000020F48060C8F80000D8F8040053
:1025300000057FF519AED8F8000020F48060C8F8D7
:10254000000032E720283FF48DAD112020630020E9
:10255000202184F83E00204684F83D1002B0BDE8FA
:10256000F04100F07BB9608D02287FF43CAE501E34
:102570000F285DD8DFE800F008575C575C5C5C5CB6
:102580005C5C5C5C5C5C5C08D8F8000020F48060FB
:1025900052E0012A02D012293FF4E0ADD8F8000041
:1025A000102ACAD8012191401422C0F2010211421E
:1025B000C3D040F48060C8F80000F6E612F5803F12
:1025C0003FF4EDAEF1E620F48060C8F80000D8F8E2
:1025D000000040F40060C8F80000D8F804000005CE
:1025E0003FF5CFAEE1E6206C40F020002064D8F843
:1025F000040020F4E060C8F80400D8F81000616A14
:102600000870606A002101306062608D0138608569
:10261000202084F83D00204684F83E1002B0BDE83A
:10262000F04100F043B8D8F8000040F4806003E0C7
:10263000D8F8000040F40070C8F80000D8F8100086
:10264000616A0870606A2168431C6362638D013BA4
:10265000638509694170606A216801306062608D3C
:1026600001386085486820F440704860202084F874
:102670003D0094F83E000021402884F83E1006D129
:102680002046216302B0BDE8F04100F0E9B8082A15
:102690004FF0000102D0202A18BF122120462163EA
:1026A00002B0BDE8F04100F0D7B80000704700006C
:1026B000B0B5B0B3044690F83D0028B9002084F8C6
:1026C0003C00204600F0D0F8242084F83D0020682B
:1026D000016821F001010160016841F400410160DD
:1026E000016821F40041016000F0B0FA48F2804135
:1026F000C0F21E0140F6001288424FF00001C0F205
:102700003D02656838BF0121904248F2A1624FF056
:102710000003C0F2010238BF0123954238BF0B46C7
:102720000BB10120B0BD4DF68361C4F21B31A0FB9B
:10273000011221684FEA924C4B6823F03F0343EAB1
:1027400092424A600A6A48F2A063C0F201039D42C5
:1027500022F03F0313D80CF1010201386D001A4337
:10276000B0FBF5F00A62CA6901304CF6FF736FF3F3
:102770001F3022EA030C042898BF04203FE04FF4E6
:1027800096720CFB02FC44F6D352C1F26202ACFB1F
:10279000022C012202EB9C121A430A62CA69A36846
:1027A0004CF6FF7C22EA0C0CA0F1010E9BB1192023
:1027B0006843BEFBF0F00422013062F31F300005D5
:1027C00012D09BB119206843BEFBF0F00422013007
:1027D00062F31F3011E005EB4500BEFBF0F0013065
:1027E0006FF31F300005ECD1012008E005EB450038
:1027F000BEFBF0F001306FF31F3040F4004040EAC0
:102800000C00C8610868D4E9072320F0C000104319
:1028100018430860886848F2FF3204F10C0C9043BA
:102820009CE82C10184310438860C86820F0FF0013
:10283000284340EA0C00C860086840F001000860C6
:1028400000202021206484F83D10206384F83E009D
:10285000B0BD0000704700007047000070470000E6
:102860007047000070470000B0B586B000240594A2
:10287000CDE9034445F200410068C4F200018842FA
:102880000294019401D006B0B0BD43F63005009427
:10289000C4F20205286840F002002860286800F0B1
:1028A000020000900098C02001901220CDE902049F
:1028B000032004900420059001F5D83001A9FFF70A
:1028C00081F800942869002140F4001028612869EB
:1028D000002200F40010009000981F2000F08CF8F7
:1028E0001F2000F079F820200021002200F084F859
:1028F000202000F071F806B0B0BD00007047000065
:102900007047000040F2680040F23461C2F20000FB
:10291000C2F2000100780A681044086070470000A5
:1029200080B543F60040C4F20200016841F4007132
:102930000160016841F480610160016841F48071C7
:102940000160032000F084F80F2000F005F800F08B
:1029500027F8002080BD000070B540F26806C2F282
:10296000000640F270013278C2F200014FF47A732F
:102970000968B3FBF2F20446B1FBF2F1084600F03D
:1029800045FC0F2C4FF0010508D838B94FF0FF3047
:1029900021460022002500F02FF87460284670BD03
:1029A00082B0002043F640010190C4F202014A685F
:1029B00042F480424A604A6802F480420192019ADD
:1029C0000090086840F080500860086800F080506F
:1029D0000090009802B07047002848BF704700F090
:1029E0001F01012202FA01F14EF200124009CEF25B
:1029F000000242F82010704710B54EF60C5CCEF283
:102A0000000CDCF80030C3F3022E8EF00704042C17
:102A100028BF0424BEF103034FF0FF3E0EFA04F476
:102A200038BF0023A14399400EFA03F39A4300F004
:102A30000F03043B1143634409010C3300F160426E
:102A4000B0F1FF3FC8BF02F56443197010BD00002C
:102A50004EF60C51CEF200010A684FF6FF031A4001
:102A600060F30A2242F0806040F0FD700860704719
:102A700070B582B00020019043F64000C4F202001D
:102A80000168402641F0805101600068C4F20E26C2
:102A900000F080500190019847F204050120C4F233
:102AA00000053060FFF778F8044600BF2868C003CF
:102AB00006D4FFF771F8001BB0F57A7FF6D90EE067
:102AC00001207060FFF768F8044600BF28688003A3
:102AD00008D4FFF761F8001BB0F57A7FF6D9032020
:102AE00002B070BD002002B070BD00002DE9F041C1
:102AF000002800F08B8043F60808C4F20208044660
:102B0000D8F8F8030D4600F00F00884207D288F885
:102B1000F853D8F8F80300F00F00A84276D12068E7
:102B2000810717D5410705D5D8F8001041F4E051C9
:102B3000C8F80010010705D5D8F8001041F460412D
:102B4000C8F80010D8F80010A26821F0F001114375
:102B5000C8F80010C0073FD1D8F8F80300F00F0004
:102B6000A84207D988F8F853D8F8F80300F00F0006
:102B7000A8424BD12068410707D5D8F80010E26879
:102B800021F4E0511143C8F80010000708D5D8F827
:102B90000000216920F4604040EAC100C8F800004C
:102BA00000F07CF8D8F8001045F2A462C1F30311DC
:102BB000C0F60002515C40F2700220FA01F140F2CE
:102BC0006C00C2F200000068C2F200021160FFF760
:102BD000C3FE0020BDE8F0816068811E022907D293
:102BE00058F8081C89015CBF0120BDE8F08110E0A5
:102BF000012807D158F8081C89035CBF0120BDE8F3
:102C0000F08106E058F8081C890702D40120BDE8CD
:102C1000F081D8F8001021F003010843C8F8000043
:102C2000FEF7BAFF064641F2883700BFD8F8000029
:102C3000616800F00C00B0EB810F8DD0FEF7ACFFA7
:102C4000801BB842F2D90320BDE8F08140F2700049
:102C500043F60801C2F20000C4F2020100680968EC
:102C600045F2B462C1F38221C0F60002515CC84053
:102C70007047000040F2700043F60801C2F2000005
:102C8000C4F202010068096845F2B462C1F342313E
:102C9000C0F60002515CC8407047000010B543F612
:102CA0000404C4F202046068C0F3810142F20040EF
:102CB000C0F2F400DFE801F04102071641F2002003
:102CC000C0F27A0010BD216801F03F02216823683C
:102CD0004902C3F3881114D4A1FB00010023FDF7BE
:102CE000E1FA15E0216801F03F02216823684902FA
:102CF000C3F3881115D4A1FB00010023FDF7D2FA1C
:102D000016E041F20020C0F27A004843B0FBF2F036
:102D100021680222C1F3014102EB4101B0FBF1F055
:102D200010BD41F20020C0F27A004843B0FBF2F03F
:102D30002168C1F30271B0FBF1F010BD2DE9F04143
:102D400082B0002800F0A0800446007843F6000618
:102D5000C007C4F2020636D0B06800F00C000428A8
:102D60002BD0B06800F00C00082802D17068400237
:102D700023D4B06800F00C000C2802D17068400227
:102D80001BD46568B5F5803F07D03068B5F5A02F36
:102D900040F0618140F480203060306840F4803041
:102DA0003060FEF7F9FE0546306880030BD4FEF76D
:102DB000F3FE401B6428F7D9EFE03068800302D5AA
:102DC0006068002860D02078800722D5B06810F0B5
:102DD0000C0F11D0B06800F00C00082802D1706808
:102DE000400209D5B06800F00C000C2840F0AE801D
:102DF0007068400200F1AA803068800702D5E06860
:102E0000012841D13068216920F0F80040EAC10072
:102E10003060207800073BD4207840074FD4A56964
:102E200085B3B06800F00C00082840F0BA80012D8E
:102E30002AD07068E16900F480028A4224D1216AB4
:102E400000F03F028A421FD147F6C071626A01401A
:102E5000B1EB821F18D1A16A4FF6FF73C9039943E2
:102E600000F44032A1F580318A420DD1E16A00F0D0
:102E70007062B2EB016F07D1216B00F0E040B0EB64
:102E8000017F01D1002022E1012002B0BDE8F081E4
:102E90006069002840F20000C4F247206ED0012192
:102EA000C0F8801EFEF778FE054600BF706F8007F1
:102EB000B2D4FEF771FE401B0228F7D96DE0306CEA
:102EC0004FF00008C0000CD4CDF80480306C4FF0F7
:102ED000010840F080503064306C00F08050019068
:102EE000019847F20007C4F200073868C00510D403
:102EF000386840F480703860FEF74EFE054600BF2B
:102F00003868C00505D4FEF747FE401B0228F7D9F4
:102F100043E0A568012D05D0306F052D78D140F034
:102F200004003067306F40F001003067FEF734FE78
:102F3000054641F2883700BF306F800700F182807C
:102F4000FEF72AFE401BB842F6D926E0E0680028CA
:102F50004AD00020C4F2472001210160FEF71CFE88
:102F6000054600BF306880073FF54CAFFEF714FE02
:102F7000401B02284FF00300F4D9A8E00021C0F85C
:102F8000801EFEF709FE0546706F80077FF544AF8F
:102F9000FEF702FE401B0228F6D9032002B0BDE86E
:102FA000F0810027C4F2472700203866FEF7F4FDC1
:102FB000022D05460CD100BF3068800164D5FEF7B4
:102FC000EBFD401B02284FF00300F5D97FE000BF66
:102FD000306880017FF556AFFEF7DEFD401B02280A
:102FE0004FF00300F4D972E00020C4F24720002122
:102FF0000160FEF7D1FD0546306880077FF509AF17
:10300000FEF7CAFD401B02284FF00300F4D95EE032
:1030100020F001003067306F20F004003067FEF7C9
:10302000BBFD002D05467FF484AF41F28837306F39
:10303000800707D5FEF7B0FD401BB8424FF00300F4
:10304000F5D944E0B8F1000F3FF4E9AE306C20F060
:1030500080503064E3E620F480303060306820F443
:1030600080203060FEF798FD002D05467FF49CAE71
:1030700006E0FEF791FD401B64284FF0030026D8C0
:1030800030688003F5D49EE604F11C052FCD246B37
:10309000084340EA8210D9034FF6FF729143A1F52D
:1030A000803140EA0560084340EA04707060012006
:1030B0003866FEF771FD0446306880013FF5E2AEE8
:1030C000FEF76AFD001B02284FF00300F4D902B09E
:1030D000BDE8F08170B550B1D0F824C00446BCF111
:1030E000000F06D00021216104F1140107E0012046
:1030F00070BD6168B1F5827F03D004F11C0100222C
:103100000A600025A56294F851104FF0000E41B9F5
:10311000204684F8505000F03FF8D4E909C101F48A
:10312000005E022284F85120D4E90023D4E9020190
:10313000166803F4827326F04006166000F404401B
:103140001844236901F40061084403F00201636933
:10315000084403F00101A369E669084403F400711F
:10316000084406F03801266A084406F08001084346
:1031700040EA0E001060042000EA13400CF0100139
:1031800008445060D06920F40060D061012065657A
:1031900084F85100284670BD80B586B000220592A3
:1031A000CDE9032243F200010068C4F20101884224
:1031B0000292019201D006B080BD43F63000009229
:1031C000C4F20200436943F480534361436903F44A
:1031D00080530093009B0092036843F00103036057
:1031E000006800F0010000900098E02001900220AB
:1031F000CDE90202032004900520059001F550401E
:1032000001A9FEF7DFFB06B080BD0000411E0020D3
:10321000B0EB116F1CBF012070474EF21002CEF2CE
:10322000000251604EF62351CEF20001F0230B70E4
:1032300007219060116070477047000070470000E0
:10324000002804BF0120704710B5044690F83D00E7
:1032500028B9002084F83C00204600F01FF8022026
:1032600084F83D002068211D01F0A4F9012084F8B4
:10327000460084F83E0084F83F0084F8400084F85B
:10328000410084F8420084F8430084F8440084F844
:10329000450084F83D00002010BD000080B582B0DC
:1032A000006842F20001C4F2000188421CBF02B073
:1032B00080BD0020019043F64000C4F20200016886
:1032C000002241F4807101600068002100F48070E8
:1032D000019001982D20FFF78FFB2D2002B0BDE853
:1032E0008040FFF779BB000070470000B0B504468E
:1032F0000068C168026902EA0105A90720D46807CD
:1033000038D4280752D4E8066BD4E80740F0878009
:10331000280600F18E80680606D520686FF040010F
:103320000161204600F096F8A80658BFB0BD21689C
:103330006FF0200220460A61BDE8B040FFF77EBF73
:103340006FF002010161012121778069800707D0B8
:103350002046FFF7C9FF002020776807D1D509E094
:10336000204600F071F8204600F070F80020207729
:103370006807C6D520686FF004010161022121773A
:10338000806910F4407F07D02046FFF7ADFF002092
:1033900020772807B7D509E0204600F055F82046E9
:1033A00000F054F8002020772807ACD520686FF093
:1033B0000801016104212177C069800707D02046F8
:1033C000FFF792FF00202077E8069ED509E020460F
:1033D00000F03AF8204600F039F800202077E8069F
:1033E00093D520686FF01001016108212177C06931
:1033F00010F4407F08D02046FFF776FF00202077AA
:10340000E8073FF485AF0AE0204600F01DF82046AB
:1034100000F01CF800202077E8073FF479AF20681F
:103420006FF001010161204600F012F828067FF5D7
:1034300072AF20686FF0800101612046FFF7FCFE4B
:1034400068067FF571AF68E77047000070470000BD
:103450007047000070470000704700007047000090
:10346000F0B581B0044600680168C268456901F0A2
:103470002F03202B02F0200306D12BB1204601B0F0
:10348000BDE8F04001F04CB95FEA017C07D005F0DF
:10349000010E12F4907F8EF001052FD175B3236BCE
:1034A0001140CA0618D5012B16D1002100910168E0
:1034B00000914168009100994169490600F18481B9
:1034C000A18DE28DE38D002B1CBF891A5FEA0142BA
:1034D00040F0FD8001B0F0BD0A0600F12F824906E0
:1034E000F8D5C16821F04001C1602021204684F850
:1034F000411001B0BDE8F04000F088BBCE0718BF16
:1035000012F4807603D0666C46F00106666401F022
:103510000407012686EA97072F4303D1676C47F01B
:103520000207676401F0020786EA5706354303D1B4
:10353000656C45F00405656453EA0E0318BF01236A
:10354000BCF1000F04D51BB1636C43F00803636446
:10355000636C002BBED01140890603D5204601F0D4
:10356000DFF820684169626C01F0400102F0080256
:10357000891800F0F48100BF50E8030F216820F49F
:10358000907041E80302C2B3206850E8030F21683D
:1035900020F4907041E803027AB3206850E8030FEA
:1035A000216820F4907041E8030232B3206850E8AB
:1035B000030F216820F4907041E80302EAB120680B
:1035C000DAE700BF206850E8050F216820F001000D
:1035D00041E80502DAB1206850E8050F216820F0C3
:1035E000010041E8050292B1206850E8050F21680A
:1035F00020F0010041E805024AB1206850E8050FBB
:10360000216820F0010041E80502002ADAD1206B90
:10361000012824D1206850E8030F216820F0100011
:1036200041E80302DAB1206850E8030F216820F076
:10363000100041E8030292B1206850E8030F2168AE
:1036400020F0100041E803024AB1206850E8030F5F
:10365000216820F0100041E80302002ADAD120207E
:1036600084F842000020206320684169490640F147
:103670008F8150E8050F216820F0400041E80502E5
:10368000002A00F07381206850E8050F216820F0BF
:10369000400041E80502002A00F06881206850E8F7
:1036A000050F216820F0400041E80502002A00F0E3
:1036B0005D81206850E8050F216820F0400041E856
:1036C0000502002A00F052812068D2E7206850E805
:1036D000030F226820F4907042E80303BBB3206814
:1036E00050E8030F226820F4907042E8030373B39C
:1036F000206850E8030F226820F4907042E803032A
:103700002BB3206850E8030F226820F4907042E841
:103710000303002BDAD11AE0206850E8050F226875
:1037200020F0010042E80503DBB1206850E8050FF6
:10373000226820F0010042E8050393B1206850E8B8
:10374000050F226820F0010042E805034BB1206814
:1037500050E8050F226820F0010042E80503002B25
:10376000DAD1202084F8420000202063206850E84D
:10377000030F226820F0100042E80303DBB1206849
:1037800050E8030F226820F0100042E8030393B1D1
:10379000206850E8030F226820F0100042E803037D
:1037A0004BB1206850E8030F226820F0100042E877
:1037B0000303002BDAD1022289B22046626301B0F2
:1037C000BDE8F040FFF748BEE26B11684B689EB25F
:1037D000002E3FF47FAEA18D8E42BFF47BAEE38519
:1037E000D269B2F5807F00F09E8050E8030F216817
:1037F00020F4807041E80302E2B1206850E8030F32
:10380000216820F4807041E803029AB1206850E8F2
:10381000030F216820F4807041E8030252B1206850
:1038200050E8030F216820F4807041E803020AB1D8
:103830002068DAE7206850E8050F216820F00100D1
:1038400041E80502BAB3206850E8050F216820F06E
:10385000010041E8050272B3206850E8050F2168B5
:1038600020F0010041E805022AB3206850E8050F66
:10387000216820F0010041E80502002ADAD11AE0AF
:10388000206850E8050F216820F0400041E805025B
:10389000DAB1206850E8050F216820F0400041E8C7
:1038A000050292B1206850E8050F216820F0400021
:1038B00041E805024AB1206850E8050F216820F070
:1038C000400041E80502002ADAD1202084F84200B5
:1038D00000202063206850E8030F216820F01000CA
:1038E00041E80302DAB1206850E8030F216820F0B4
:1038F000100041E8030292B1206850E8030F2168EC
:1039000020F0100041E803024AB1206850E8030F9C
:10391000216820F0100041E80302002ADAD1E06BB0
:10392000FDF750FEA18D02206063E08D081A81B280
:10393000204601B0BDE8F040FFF78EBD94F841107D
:1039400021297FF4C7ADA168B1F5805F01D121695C
:1039500021B3216A4A1C22620978416025E0204691
:10396000FFF77CFD0020606401B0F0BDE06B78B132
:1039700044F21571C0F600010165FDF76BFE0028E9
:103980003FF4A8ADE06B016D01B0BDE8F040084721
:10399000204601B0BDE8F040FFF760BD216A31F874
:1039A000022B6FF35F2242602162E18C01390A042D
:1039B000E1847FF48FADC16821F08001C160C168EE
:1039C00041F04001C16001B0F0BD0000002804BF1B
:1039D0000120704710B5044690F8410028B9002036
:1039E00084F84000204600F021F8242084F84100AB
:1039F0002068C16821F40051C160204600F00EFF2C
:103A00002068016921F490410161416921F02A0196
:103A10004161C16841F40051C1600020202160640F
:103A200084F8411084F84210606310BD2DE9F0471E
:103A300086B00026CDE90466CDE90266044600683A
:103A400045F20001C4F20001884201962FD044F6ED
:103A50000041C4F20001884240F09580002043F606
:103A600030010090C4F202010A6942F400220A61A6
:103A70000A6902F400220092009A00900A6842F05B
:103A800001020A600968022201F001010091009917
:103A900003210191CDE90220082005900020049126
:103AA000C4F2020001A9FDF78DFF342463E043F660
:103AB00030000096C4F202000169002741F4801131
:103AC00001610169C4F2020701F4801100910099BB
:103AD0000096016801AD41F00401016001684FF0FA
:103AE000020801F0040100910099009601684FF06E
:103AF000030941F00801016000684FF0080A00F076
:103B00000800009000984FF48050019007F5006085
:103B10002946CDE90286CDF81090CDF814A0FDF726
:103B200051FF0420CDE9010803A880E8400607F50D
:103B300040602946FDF746FF40F2504546F2B80086
:103B4000C2F20005C4F202004FF0006140224FF4BF
:103B5000806385E847002846C5E90436C5E906665E
:103B6000C5E90866FDF76CFE002818BFFCF7E8FC05
:103B7000A563AC633524204600210022FEF73CFFFC
:103B80002046FEF729FF06B0BDE8F08790F84230E6
:103B9000202B1CBF0220704700294FF0010318BFE3
:103BA000002A01D118467047002303638162222155
:103BB0008285C285436480F842100169006819B1AA
:103BC000C16841F48071C1604169002341F0010185
:103BD0004161C16841F02001C16018467047000092
:103BE00080B540F24820C2F2000000F1100140F21E
:103BF000A450C2F200000822FFF7C8FF40F2D8002C
:103C0000C2F20000018A0131018280BD70470000CC
:103C1000FEE7000040F2B040C2F20000FDF7C6BF70
:103C200040F2B040C2F20000FEF760B810B582B0BA
:103C300000210191806B40F27001C2F2000190F806
:103C40003DC009684BF28952C908C1F2F842A1FB94
:103C50000212110A232251430191019911B30199D2
:103C6000013901910168096889051FD50199C9B118
:103C700001990139019101680968890516D50199F1
:103C800081B10199013901910168096889050DD552
:103C9000019939B1019901390191016809688905D2
:103CA000DBD403E0016C41F020010164446B4FF070
:103CB000000E002C1CBF0021E163816B00291CBF9A
:103CC0000022CA630268002C136823F48063136027
:103CD000A0F82AE018BFC4F850E000291CBF002358
:103CE0000B65116821F00101116090F83D10602909
:103CF0000AD1202180F83D10002180F83E10016497
:103D0000FDF750FF02B010BD0CF02801282910D19A
:103D1000116841F001011160116841F48061116086
:103D200000210163282180F83D10FEF7BFFC02B09E
:103D300010BD202180F83D10002180F83E10FEF7D4
:103D4000B5FC02B010BD000010B5044690F83D105F
:103D500090F83E00402801D010280AD1222908D12D
:103D60002068026822F4006202604268602938D14B
:103D700040E001F0280028282FD1002020632820CF
:103D800084F83D0020684168090538D5416821F470
:103D900000614160606B90F8351001294DD1A06B36
:103DA00043F62D41C0F600010165FDF753FC0028E4
:103DB00056D020684169490606D50069616A0870D5
:103DC000616A206801316162016821F001010160CE
:103DD000202084F83D00A06B40E020684268602904
:103DE00008D012F4006105D1202184F83D10002193
:103DF00084F83E100021216341680905C6D494F877
:103E00003D1060294ED1202184F83D10002121640D
:103E10004169490606D50069616A0870616A2068CF
:103E200001316162016821F0010101602046FDF766
:103E3000B9FE206C000716D11AE043F62D41C0F6FA
:103E400000010165FDF706FC50B12168606B0A684E
:103E500022F001020A60202184F83D10016D88479C
:103E6000206C000704D02068416821F4E0614160C3
:103E700094F83D10206C282918BF10BD10F00400E4
:103E80000FD00020CFF6FF70E062002120202163D8
:103E900084F83D00204684F83E10BDE81040FEF74F
:103EA000D9BC10BD4169490605D50069616A087031
:103EB000606A013060622046FEF7F8FB206C000764
:103EC000D1D1D5E790F83D10026D52B1026D012AB3
:103ED00012D10168826CD2B20A61016D01310165B3
:103EE0007047C26C816C012A14D10268C9B2116199
:103EF000016D023101657047026D022A12D122293B
:103F000017D101680A6842F480720A60016D0131BC
:103F100001657047C1F3072102681161016D01312C
:103F20000165704700684169090644BF00210161CD
:103F30007047428D21290AD14AB1416A026811F8BD
:103F4000013B13614162418D01394185704721294F
:103F5000428D08BF002AEBD101684A6822F4E06272
:103F60004A600A6842F400720A600021202201635C
:103F700080F83D2080F83E10FEF774BC2DE9F04734
:103F800040F25410C2F20000016D013101650020C1
:103F9000C4F202004021FDF7F3FD40F2D80C40F2DC
:103FA0004823002818BF0120C2F2000CC2F200030F
:103FB0008CF80000187C40F20008C2F20008AA2821
:103FC00008F1050A04D0FF2805D108F1060000E039
:103FD00050460022027093F811E008F10605BEF188
:103FE000AA0F0DD0BEF1FF0F28460AD093F8129009
:103FF000B9F1FF0F0CD0B9F1AA0F0CD1504608E06F
:1040000050460122027093F81290B9F1FF0FF2D1DD
:10401000284602220270D87CFF2803D0AA2804D1A7
:10402000544600E02C46032222701E7DFF2E03D052
:10403000AA2E04D1544600E02C46042222705F7D53
:10404000FF2F03D0AA2F04D1544600E02C460522AE
:1040500022709C7DFF2C03D0AA2C04D1524600E094
:104060002A4606211170DA7DFF2A02D0AA2A02D13F
:1040700055460721297098F8061098F8052081F018
:10408000070111434FF0020208BF0122012A8CF8F8
:104090000F2006D0022A01D100F034FC98F802006B
:1040A00011E098F8011088F800E0B9F1000F18BF8E
:1040B000494688F8011088F8020088F803608CF8F7
:1040C00003708CF80440002804BF012088F8020027
:1040D000BDE8F0872DE9F04F81B040F20000C2F258
:1040E0000000017840F2D80940F2D01A0129C2F24A
:1040F0000009C2F2000A0DD199F9032099F80530A0
:10410000D1B28B4240F23433C2F200030CD199EDAC
:10411000090A1EE09FEDC30A0020B0EE401AC9F85C
:104120002C00C9F83000D9E002290AD845F2986776
:10413000C0F6000707EB820292ED001A92ED000A2A
:1041400003E09FEDB81AB0EE410A89ED091A89F82B
:104150000510B3F94020B0EE403A332AB5EE400ADC
:10416000B0EE401AB9EE042AB8BFB0EE423AF1EE12
:1041700010FAB8BFB0EE431AB0EE414AB1EE043ABD
:10418000952AC8BFB0EE434AB5EE400AB3F94230B3
:10419000F1EE10FAC8BFB0EE441A332BB0EE404A2D
:1041A000B8BFB0EE424AF1EE10FAB5EE400AB8BF21
:1041B000B0EE440A952BB0EE402AC8BFB0EE432AB9
:1041C000F1EE10FAB5EE401AC8BFB0EE420AF1EEB9
:1041D00010FAB0EE413A9FED932AB8BFB0EE423AE2
:1041E000012AB8BFB0EE431AF1EE10FAB0EE413A30
:1041F000C8BFB0EE423AC72AB5EE400AC8BFB0EE1B
:10420000431AF1EE10FAB0EE403A89ED0B1AB8BF3E
:10421000B0EE423A012BB8BFB0EE430AF1EE10FA0D
:10422000B0EE403AC8BFB0EE423AC72BC8BFB0EEBE
:10423000430A9A1A134689ED0C0A48BF5342078A6B
:10424000BB4245DD0B2B11DB9FED762A0029B0EE3A
:10425000423A04BFB0EE413AB0EE402AB0EE420A14
:10426000B0EE431A89ED0B3A89ED0C2A02EE102AC2
:10427000B8EEC22A90ED163A8AED0A2A23EE023AE7
:10428000B8EE002A9FED674AB4EE423AB0EE432AF8
:10429000F1EE10FAC8BFB0EE442AB0EE004AB4EE18
:1042A000443AF1EE10FAB8BFB0EE423ABAEE042A40
:1042B000B4EE423AF1EE10FAB8BFB0EE423AB2EEC6
:1042C000042AB4EE423AF1EE10FAB8BFB0EE432A37
:1042D00032EE011A8AED0B2A89ED0B1A99ED0E2A9E
:1042E00040F24824B4EE412AF1EE10FAC2F2000482
:1042F00049D040F28D10254640F2343845F8640F1D
:104300004FF0000B04200AF170060AF13007C2F2E8
:10431000000885F814B0C5E901BBC5E903B0404603
:10432000294632463B468AED1C1AFCF793FB0120D6
:10433000FDF734FBD9F8200029460130C9F82000E8
:10434000404632463B46FCF785FB0120FDF726FB45
:10435000D9F8200029460130C9F8200040463246ED
:104360003B46FCF777FB0120FDF718FBD9F820004E
:1043700099ED0C0A0130C9F82000D9F82C00CAE9DF
:104380001CBBC9F8380099ED0D1AB4EE401AF1EED5
:1043900010FA44D040F2AD1040F2343844F8640FC3
:1043A000002704200AF170050AF13006C2F2000865
:1043B0002775C4E90177C4E90370404621462A46BF
:1043C00033468AED1C0AFCF745FB0120FDF7E6FAAF
:1043D000D9F8200021460130C9F8200040462A467D
:1043E0003346FCF737FB0120FDF7D8FAD9F8200057
:1043F00021460130C9F8200040462A463346FCF7E2
:1044000029FB0120FDF7CAFAD9F82000D9F83010AD
:104410000130C9F82000CAE91C77C9F8341001B08E
:10442000BDE8F08F00000000FEE70000FEE700009E
:104430007047000070470000032803D8012818BF08
:10444000B1EE400A2DE9F04740F24824400140F225
:10445000D019C2F200040E30C2F2000940F2343822
:1044600044F8640F4FF0000A042009F1700509F1C7
:104470003006C2F20008B1EE400A84F814A0C4E984
:1044800001AAC4E903A0404621462A46334689EDE5
:104490001C0AFCF7DFFA0120FDF780FA40F2D8078A
:1044A000C2F20007386A21460130386240462A4687
:1044B0003346FCF7CFFA0120FDF770FA386A21463F
:1044C0000130386240462A463346FCF7C3FA0120E1
:1044D000FDF764FA386AC9E91CAA01303862BDE800
:1044E000F0870000FEF70EBA80B594B0002043F6C6
:1044F0004001CDE90B00CDE909000690CDE90400AB
:10450000CDE902000190C4F202010A6842F0805233
:104510000A60096801F0805101910199019047F208
:104520000000C4F20000016841F4404101600068ED
:104530004FF4800100F44040019001980120079061
:104540004FF480300E910421089002200F91B42185
:104550000D90CDE91010CDE9120007A8FEF7EEFB93
:10456000B0B9FEF785FA98B90F20029002200390A7
:10457000002004904FF4A05005904FF48050069016
:1045800002A80521FEF7B2FA002804BF14B080BDCE
:10459000FBF7D6FF4EF68850CEF20000016841F4DA
:1045A000700101607047000040F25C50C2F20000F0
:1045B000FEF79CBE10B540F6FF3E0368C4F2000E45
:1045C00040F2004C7045C4F2010C26DCB0F1804F83
:1045D00030D040F20042C4F2000290422AD040F6AD
:1045E0000002C4F20002904224D041F6FF72C4F2ED
:1045F0000002904228DC70453ADCB0F1804F5CD07C
:1046000040F20042C4F20002904256D040F600024E
:10461000C4F20002904250D053E040F60042C4F28F
:104620000002904206D0604504D00022C4F201028C
:104630009042DAD14A6823F07003134341F6FF72C7
:10464000C4F200029042D6DD43F6FF72C4F20102CA
:10465000904220DC42F20002C4F2000290422CD0D0
:104660000022C4F20102904227D0604525D028E004
:1046700040F60042C4F2000290421ED041F6000211
:10468000C4F20002904218D041F60042C4F2000287
:10469000904212D015E044F20002C4F201029042AE
:1046A0000BD044F60002C4F20102904205D044F25D
:1046B0000042C4F20102904203D1CA6823F440735D
:1046C000134323F080024B69D1F800E08C681A4351
:1046D0000260C46240F48062C0F828E0624504BF12
:1046E00009690163012141610169C90708BF10BD62
:1046F000016921F00101016110BD000040F2A450E8
:10470000C2F20000FEF7ACBE40F2EC50C2F2000074
:10471000FEF7A6BE806B0021C185C184FEF79EBE58
:1047200081B090F84210222920D18368B3F5805FD0
:1047300008D10169002964D000F128010A680368E2
:104740005B680AE0014651F8282F13B90369002B72
:10475000F5D003685B6803F07F0313700A680132C9
:104760000A60C18D01390A04C18501D001B07047CA
:104770000168CA6822F02002CA60CA6822F4807206
:10478000CA604A6922F001024A61202280F8422070
:1047900000224263036B012B3CD1026351E8031FEB
:1047A000026821F0100142E803130168DBB151E80F
:1047B000031F026821F0100142E80313016893B15E
:1047C00051E8031F026821F0100142E80313016859
:1047D0004BB151E8031F026821F0100142E80313B6
:1047E0000168002BDAD10A68D20606D500220092B1
:1047F0000A680092496800910099818D01B0FEF726
:104800002BBE0168826A49686FF35F2122F8021BA0
:104810008262A6E701B0FFF7E3B9000010B50446D5
:104820000068D4E902C22369016921F440511143AF
:104830000161626943EA0C01E3691143C2681943EB
:1048400049F20C639A431143C1604169A26921F4A2
:10485000407141F20043114340F48062C4F201030D
:104860009A42416102D1FEF705FA01E0FEF7EEF946
:10487000E16963681922B1F5004FA0FB02011FD165
:104880005A00DB0FFBF70EFD48F21F51C5F2EB118A
:10489000A0FB01235A096FF0630302FB03003223DC
:1048A00003EBC000A0FB01014FF4F87000EA111007
:1048B00000EB0210C1F3421122680843906010BD62
:1048C0009A009B0FFBF7EEFC48F21F51C5F2EB116B
:1048D000A0FB01235A096FF0630302FB030032239C
:1048E00003EB0010A0FB0101F02000EA511000EBE7
:1048F0000210C1F3431122680843906010BD00000C
:10490000FEE700002DE9F04F40F24820C2F200001F
:1049100090F810C040F2D8074FF00A0AC2F2000720
:1049200019E000BF4FF0070E477540F2D807C2F2FA
:104930000007C175F979BAF1020A01F10101847524
:104940000675C57480F8129080F811B080F810C018
:10495000F97100F0BA80BCF1AA0418BF4FF0FF341F
:1049600090F811E0817CC67C057DBEF1AA0F08BFDE
:104970000124AA2908BF0224AA2E08BF0324437DCC
:10498000AA2D08BF0424827DAA2B08BF052490F815
:1049900017B0AA2A08BF0624BBF1FF0F08BF5FEAC1
:1049A000046400F08E80C174F979BBF1AA0F01F1A3
:1049B0000101C27583754575067580F812E080F8AF
:1049C00011C080F810B0F9710CD0BBF1FF0F41D1CC
:1049D0004FF0FF0E4FF0000890F81190B9F1AA0FB8
:1049E00009D140E04FF0000E4FF0FF0890F8119011
:1049F000B9F1AA0F37D0B9F1FF0F08BF4FF0010886
:104A0000857CAA2D34D0FF2D08BF4FF00208C67C4C
:104A1000AA2E32D0FF2E08BF4FF00308077DAA2F21
:104A200030D0FF2F08BF4FF00408447DAA2C2ED0B1
:104A3000FF2C08BF4FF00508817DAA292CD0FF2943
:104A400008BF4FF0060890F817C0BCF1AA0F2BD191
:104A500068E700BF4FF0FF084FF0FF0E90F811908D
:104A6000B9F1AA0FC7D14FF0010E857CAA2DCAD18A
:104A70004FF0020EC67CAA2ECCD14FF0030E077D5C
:104A8000AA2FCED14FF0040E447DAA2CD0D14FF0E6
:104A9000050E817DAA29D2D14FF0060E90F817C0DD
:104AA000BCF1AA0F3FF43EAFBCF1FF0F7FF43CAF67
:104AB000BEF1000F4FF007087FF436AF4FF0000E45
:104AC00003E04FF0000E4FF0070840F20000C2F282
:104AD000000080F805E080F80680BDE8F08F000057
:104AE0008CB040F60008C4F20208FDF719FFFFF78A
:104AF000FBFC002443F6300506940194C4F2020541
:104B000028684FF4035140F0040028602868002210
:104B100000F0040001900198019428684FF40357B5
:104B200040F080002860286800F080000190019823
:104B30000194286840F001002860286800F0010016
:104B4000019001980194286840F0020028602868CC
:104B500000F00200019001980194286840F00800DC
:104B60002860286800F00800019001984046FDF791
:104B70000DF8A8F500663046102100224FF0100B0A
:104B8000FDF704F8A8F58069484640F20631002296
:104B9000FCF7FCFF029702AF4FF0010A404639468E
:104BA000CDE903A40594FCF70DFF0420CDE9020430
:104BB000304639460494FCF705FF30463946CDE9C6
:104BC00002BACDE90444FCF7FDFE40F20630CDE91F
:104BD000020A48463946CDE90444FCF7F3FE4FF497
:104BE0000060CDE90204404639460494FCF7EAFE31
:104BF00002942868002140F40010286028680022F0
:104C000000F40010029002982F20FDF7F5FE2F20EF
:104C1000FDF7E2FE40F234300126A8F5D031C2F2B1
:104C200000004FF420234FF40017C0F200160C22AE
:104C300080E81600C0E90343C0E905768483FCF7E9
:104C400083F9002840F0DD800E20CDF828A0CDE9C2
:104C500006A0CDE90244CDE90444CDE9084A0B9011
:104C600040F23430C2F2000002A9FBF743FF40F2E9
:104C70000450A8F55841C2F200004FF482724FF47C
:104C8000007380E816000A21C0E90344C0E9054327
:104C9000C461C0E90844C0E90A41FEF71BFA0028D4
:104CA00040F0AF8040F25C50A8F5F431C2F2000051
:104CB000002440F2E73342F2273280E81600C0E9D0
:104CC00003348461FEF7BCFA002840F09A8040F279
:104CD000B040A8F5DA31C2F2000048F2A0624FF409
:104CE0008043C0F2010280E81600C0E90343C0E936
:104CF0000544C0E90744FDF7DBFC002840F0818053
:104D00004FF41670FCF74AFE40F23435C2F200054B
:104D10002846FCF71BFC6420FCF740FE28461021C7
:104D2000FBF782FEFCF738FF40F25414C2F2000495
:104D30002064FCF731FF6064FCF72EFFA064FCF7F1
:104D40002BFFE06440F24824C2F2000404F1360074
:104D500004F14C011722FBF71DFB40F2A450A8F50B
:104D6000DE31C2F200004FF4E13700250C26C0E925
:104D70000017C0E90255C0E90456C0E90655FEF720
:104D800025FE00283DD140F2EC50A8F5DC31C2F2FE
:104D90000000C0E90017C0E90255C0E90456C0E9A7
:104DA0000655FEF713FE60BB40F2A45004F110015B
:104DB000C2F200000822FEF7E9FE4FF4FA60FCF7A9
:104DC000EDFD4046402101220124FCF7DFFE404674
:104DD00080210122FCF7DAFE40F20000C2F200005E
:104DE000C4714FF47A70FCF7D9FD40F2C420C2F2CE
:104DF0000000FE2180F83810FFF7C0F8FFF76AF9CD
:104E0000FAE7FBF79DFB000021F0004201F00043B0
:104E1000A2F16052B2F5801F28BFD2F17F6C0BD98E
:104E20005FEA001C43EAC20242EB507018BF7047B1
:104E300028BF20F001007047B2F5801FBCBF1846A4
:104E400070474FEA410C1CF5001F02D2084600F0E3
:104E50001DBC70B500F034FA00000089FFF7F6BF02
:104E60004FF00040A0F580007047000010B591EAB7
:104E7000030F48BF83F0004300F17E82841A71EB78
:104E8000030C05D2121943EB0C03001B61EB0C0160
:104E90004FEA1154A4EB135CDFF81CE11EEA430F48
:104EA00018BF9EEA445F73D021EA045123EA0E033F
:104EB00043F48013DCF1200E32D322FA0CFE10EB07
:104EC0000E0023FA0CFE41EB0E01CCF1200E03FA8A
:104ED0000EFE10EB0E00CCF1200E51F10001B1F5E9
:104EE000801F32D201EB045112FA0EF2BDE81040DD
:104EF00058BF7047401C38BF5FEA420218BF704776
:104F0000002814BF20F0010041F100014FEA4103E5
:104F100013F5001F38BF7047A1F1C04100F01EBA61
:104F2000012A43EB0302ACF1200CDCF11F0E32BF6F
:104F30004FF0000E23FA0CF310EB030041EB045189
:104F4000B4EB115FD0D0A1EB045101F580114908F9
:104F500001EB04515FEA30000ED350F1000038BF7E
:104F600012FA0EFE08D1BDE81040C9E7401C38BF58
:104F70005FEA4202CAD1C3E7BDE810404FEA4103ED
:104F800013F5001F38BF7047A1F1C04100F0E6B92A
:104F90009EEA445F08D011EA5E0FBDE8104004BFEE
:104FA00001F0004100207047BDE8104070B500F0EE
:104FB00087F900BF64FBBE3E0000E0FF491058BF08
:104FC000C1F140415B1058BFC3F140438B42EFF346
:104FD0000080704751EA030C17D41CF5801F58BF9E
:104FE000BCF5801F00F10680994218BF704708BFCA
:104FF0009042704707D711F5801F58BF13F5801FE7
:1050000019D499427047894270471CF5801F08D512
:10501000BCF5801FF7D58B4218BF704708BF82428E
:1050200070474FF4001C1CEB410F38BF1CEB430FC3
:1050300001D28B42704770B500F042F992244900CA
:105040004FF000514FF08053FFF7B8BF10F000420F
:1050500048BF4042B0FA80F310FA03F10AD0C3F11E
:105060001D0303F5806302EB03524FEA415002EB4C
:10507000D12170474FF000007047000051EA030C47
:1050800017D41CF5801F58BFBCF5801F00F10680A7
:10509000994218BF704708BF9042704707D711F573
:1050A000801F58BF13F5801F19D499427047894259
:1050B00070471CF5801F08D5BCF5801FF7D58B42C3
:1050C00018BF704708BF824270474FF4001C1CEBAA
:1050D000410F38BF1CEB430F01D28B42704770B5B4
:1050E00000F0EEF8922449004FF080514FF0005349
:1050F000FFF764BF51EA030C17D41CF5801F58BF9B
:10510000BCF5801F00F10680994218BF704708BFA8
:105110009042704707D711F5801F58BF13F5801FC5
:1051200019D499427047894270471CF5801F08D5F1
:10513000BCF5801FF7D58B4218BF704708BF82426D
:1051400070474FF4001C1CEB410F38BF1CEB430FA2
:1051500001D28B42704770B500F0B2F8922449003A
:105160004FF000514FF08053FFF728BF70B5DFF8C4
:1051700048C11CEA111E1EBF1CEA13159EEA0C0F43
:1051800095EA0C0F00F06F8081EA03044EEAD47EAA
:10519000AE4421EA4C1123EA4C1341F4801143F44C
:1051A0008013AEF17F7EA1FB024CA0FB0365361994
:1051B00055EB0C05A1FB034C4CF10003A0FB021CBA
:1051C00016EB0C06654153F10003094218BF46F087
:1051D000010613F4007F0BD14FEA03314FEA05308B
:1051E00041EA155140EA165034036FF003020AE019
:1051F0004FEAC3214FEAC52041EA555140EA5650D3
:10520000F4026FF0020202EB2E4201EB025585EA36
:10521000CE710AD05FEA440C18BF24F0004450F16C
:10522000000041F1000120EAD47040F2FE7C6245AA
:1052300000D270BDA84214BF4FF080444FF04044EC
:10524000002E08BF0024BEF1806FA8BFA1F1C041AD
:10525000BDE8704080F2828001F1C04101F0004160
:105260004FF0000070470CEA13159EEA0C0F18BFB0
:1052700095EA0C0F06D081EA030E4FF000000EF005
:10528000004170BD00F01CF88900013E00F007B835
:1052900000F009B84FEA430C5FEA5C5C08D081EA91
:1052A000030100F05BB84FEA410C5FEA5C5CF6D1A9
:1052B00002494FF0000070470000FF070000F87F30
:1052C0000EF1020E2EF0030E5EF8046B364205D48A
:1052D000012A43EB030515F5001F12D8012841EB05
:1052E000010C1CF5001F0CD80ED14FEAD17C0CEB41
:1052F0004C0C0CF1020C15F5001F08BF4CEBD37CD5
:1053000004E04FF0080C01E04FEAD37C0CEB4C05B5
:1053100026FA05F606F00706B6F1040C06D20EEBE7
:10532000860CBDE870404CF0010C6047DFE80CF0E3
:10533000090B02024FF00041A1F500214FF00000DF
:1053400070BD19461046012851EB010418BFD4F571
:10535000001484BF002001F0004170BD0808A0F5D2
:1053600000114FEA3101704710B591EA030F48BFB1
:1053700083F000433FF582AD841A71EB030C07D232
:105380008CF0004C121943EB0C03001B61EB0C0179
:105390004FEA1154A4EB135CDFF89CE11EEA430FC3
:1053A00018BF9EEA445F00F0B08021EA045123EA6E
:1053B0006E035242C3EB6E0338BF5B1EDCF1200E5E
:1053C00025D322FA0CFE10EB0E0043FA0CFE41EB43
:1053D0000E01CCF1200E03FA0EFE10EB0E00CCF104
:1053E000200E51F1000129D401EB045112FA0EF202
:1053F000BDE8104058BF7047401C1CBFB2F1004FC1
:10540000704700280CBF491C20F00100704712EBC8
:10541000020E43EB030218BF4FF0010E4EEA4202A8
:10542000ACF1200CDCF11E0E54D943FA0CFE10EB4B
:105430000E00CCF11E0E51F1FF31D5D50EF1010E4B
:1054400012FA0EFE404141EB010101EB445C5FEAC0
:105450005C5C10D901EB045110EBDE7038BFBEF17B
:10546000004FBDE8104018BF704700280CBF491C12
:1054700020F00100704730D24FEAD42C24F40064AD
:1054800011F500111BD0B1FA81F20B3AA41AA41E37
:10549000D2F12003914030FA03F31943904001EB1D
:1054A000CC7101EB0451002CBDE81040A8BF70473F
:1054B00001F1C04101F000414FF000007047B0FA27
:1054C00080F310FA03F100D110BDE41A173C48052F
:1054D000C90AE4E701EB045110BD49104FEA30005E
:1054E00001EB0451BDE8104002E04FF000017047AD
:1054F0004A0008BF0042F8D0B2F5001F28BF70472D
:1055000001F000414FF0000070479EEA445F07D071
:1055100011EA5E0FBDE8104004BF00210020704773
:10552000BDE8104070B5FFF7CBFE00BF40DFF63E90
:10553000104683F0004170470000E0FF43004FEA4F
:10554000D30C4FEA3C0C43401FBF40070CF16051A5
:1055500013F0FE4F70471CF0006F03D10CF00041B8
:10556000002070470CF0004343EA507040EACC0042
:1055700010B500F038F800BF000000924FEA0001BB
:10558000FFF7ECBE4FF00041A1F500214FF0000005
:10559000704710B5FFF71EFD0CBF0120002010BDA5
:1055A00010B5FFF717FD14BF0120002010BD10B586
:1055B000FFF764FD8CBF0120002010BD10B5FFF780
:1055C0005DFD2CBF0120002010BD10B5FFF792FD3E
:1055D00094BF0120002010BD10B5FFF78BFD34BF34
:1055E0000120002010BD0EF1020E2EF0030E5EF819
:1055F000044B244204D44FEA4102B2F17F4F11D848
:105600004FEA4003B3F17F4F0CD80ED14FEAD07C64
:105610000CEB4C0C0CF1020CB2F17F4F08BF4CEBC1
:10562000D17C04E04FF0080C01E04FEAD17C0CEB98
:105630004C0324FA03F404F00704B4F1040C06D27A
:105640000EEB840CBDE810404CF0010C6047DFE825
:105650000CF0070802024FF00040A0F5800010BDDA
:105660000846420018BFD2F1807288BF00F00040A7
:1056700010BDF1EE100A4FF6FF71C0F2C03120EA02
:10568000010040F04070E1EE100A7047FF2141EA4E
:10569000D050C00570470000000000000000A0428C
:1056A0000000A0C20000000000000000010203048E
:1056B0000607080900000000010203040006101696
:1056C00000061016E85600080000002078000000D0
:1056D000000200086057000878000020C00B00009E
:1056E0001C020008000000000101015A01FFFF0137
:1056F0000A0A010090013200050000000000A040ED
:105700000000204133331340000080BF000080BF01
:10571000000080BFCDCC9C409A9999C0000080BF0A
:10572000000080BF0000803F0000004000000040FB
:105730000000004000000040000080BF000080BF6B
:105740000000803F000000007B14AE47E17A843FF8
:1057500001000000100000000024F4000000000020
:04000005080001C529
:00000001FF
